{
  "_format": "hh-sol-artifact-1",
  "contractName": "MyOFTMock",
  "sourceName": "contracts/mocks/MyOFTMock.sol",
  "abi": [
    {
      "inputs": [
        {
          "internalType": "string",
          "name": "_name",
          "type": "string"
        },
        {
          "internalType": "string",
          "name": "_symbol",
          "type": "string"
        },
        {
          "internalType": "address",
          "name": "_lzEndpoint",
          "type": "address"
        },
        {
          "internalType": "address",
          "name": "_delegate",
          "type": "address"
        }
      ],
      "stateMutability": "nonpayable",
      "type": "constructor"
    },
    {
      "inputs": [
        {
          "internalType": "address",
          "name": "spender",
          "type": "address"
        },
        {
          "internalType": "uint256",
          "name": "allowance",
          "type": "uint256"
        },
        {
          "internalType": "uint256",
          "name": "needed",
          "type": "uint256"
        }
      ],
      "name": "ERC20InsufficientAllowance",
      "type": "error"
    },
    {
      "inputs": [
        {
          "internalType": "address",
          "name": "sender",
          "type": "address"
        },
        {
          "internalType": "uint256",
          "name": "balance",
          "type": "uint256"
        },
        {
          "internalType": "uint256",
          "name": "needed",
          "type": "uint256"
        }
      ],
      "name": "ERC20InsufficientBalance",
      "type": "error"
    },
    {
      "inputs": [
        {
          "internalType": "address",
          "name": "approver",
          "type": "address"
        }
      ],
      "name": "ERC20InvalidApprover",
      "type": "error"
    },
    {
      "inputs": [
        {
          "internalType": "address",
          "name": "receiver",
          "type": "address"
        }
      ],
      "name": "ERC20InvalidReceiver",
      "type": "error"
    },
    {
      "inputs": [
        {
          "internalType": "address",
          "name": "sender",
          "type": "address"
        }
      ],
      "name": "ERC20InvalidSender",
      "type": "error"
    },
    {
      "inputs": [
        {
          "internalType": "address",
          "name": "spender",
          "type": "address"
        }
      ],
      "name": "ERC20InvalidSpender",
      "type": "error"
    },
    {
      "inputs": [],
      "name": "InvalidDelegate",
      "type": "error"
    },
    {
      "inputs": [],
      "name": "InvalidEndpointCall",
      "type": "error"
    },
    {
      "inputs": [],
      "name": "InvalidLocalDecimals",
      "type": "error"
    },
    {
      "inputs": [
        {
          "internalType": "bytes",
          "name": "options",
          "type": "bytes"
        }
      ],
      "name": "InvalidOptions",
      "type": "error"
    },
    {
      "inputs": [],
      "name": "LzTokenUnavailable",
      "type": "error"
    },
    {
      "inputs": [
        {
          "internalType": "uint32",
          "name": "eid",
          "type": "uint32"
        }
      ],
      "name": "NoPeer",
      "type": "error"
    },
    {
      "inputs": [
        {
          "internalType": "uint256",
          "name": "msgValue",
          "type": "uint256"
        }
      ],
      "name": "NotEnoughNative",
      "type": "error"
    },
    {
      "inputs": [
        {
          "internalType": "address",
          "name": "addr",
          "type": "address"
        }
      ],
      "name": "OnlyEndpoint",
      "type": "error"
    },
    {
      "inputs": [
        {
          "internalType": "uint32",
          "name": "eid",
          "type": "uint32"
        },
        {
          "internalType": "bytes32",
          "name": "sender",
          "type": "bytes32"
        }
      ],
      "name": "OnlyPeer",
      "type": "error"
    },
    {
      "inputs": [],
      "name": "OnlySelf",
      "type": "error"
    },
    {
      "inputs": [
        {
          "internalType": "address",
          "name": "owner",
          "type": "address"
        }
      ],
      "name": "OwnableInvalidOwner",
      "type": "error"
    },
    {
      "inputs": [
        {
          "internalType": "address",
          "name": "account",
          "type": "address"
        }
      ],
      "name": "OwnableUnauthorizedAccount",
      "type": "error"
    },
    {
      "inputs": [
        {
          "internalType": "address",
          "name": "token",
          "type": "address"
        }
      ],
      "name": "SafeERC20FailedOperation",
      "type": "error"
    },
    {
      "inputs": [
        {
          "internalType": "bytes",
          "name": "result",
          "type": "bytes"
        }
      ],
      "name": "SimulationResult",
      "type": "error"
    },
    {
      "inputs": [
        {
          "internalType": "uint256",
          "name": "amountLD",
          "type": "uint256"
        },
        {
          "internalType": "uint256",
          "name": "minAmountLD",
          "type": "uint256"
        }
      ],
      "name": "SlippageExceeded",
      "type": "error"
    },
    {
      "anonymous": false,
      "inputs": [
        {
          "indexed": true,
          "internalType": "address",
          "name": "owner",
          "type": "address"
        },
        {
          "indexed": true,
          "internalType": "address",
          "name": "spender",
          "type": "address"
        },
        {
          "indexed": false,
          "internalType": "uint256",
          "name": "value",
          "type": "uint256"
        }
      ],
      "name": "Approval",
      "type": "event"
    },
    {
      "anonymous": false,
      "inputs": [
        {
          "components": [
            {
              "internalType": "uint32",
              "name": "eid",
              "type": "uint32"
            },
            {
              "internalType": "uint16",
              "name": "msgType",
              "type": "uint16"
            },
            {
              "internalType": "bytes",
              "name": "options",
              "type": "bytes"
            }
          ],
          "indexed": false,
          "internalType": "struct EnforcedOptionParam[]",
          "name": "_enforcedOptions",
          "type": "tuple[]"
        }
      ],
      "name": "EnforcedOptionSet",
      "type": "event"
    },
    {
      "anonymous": false,
      "inputs": [
        {
          "indexed": false,
          "internalType": "address",
          "name": "inspector",
          "type": "address"
        }
      ],
      "name": "MsgInspectorSet",
      "type": "event"
    },
    {
      "anonymous": false,
      "inputs": [
        {
          "indexed": true,
          "internalType": "bytes32",
          "name": "guid",
          "type": "bytes32"
        },
        {
          "indexed": false,
          "internalType": "uint32",
          "name": "srcEid",
          "type": "uint32"
        },
        {
          "indexed": true,
          "internalType": "address",
          "name": "toAddress",
          "type": "address"
        },
        {
          "indexed": false,
          "internalType": "uint256",
          "name": "amountReceivedLD",
          "type": "uint256"
        }
      ],
      "name": "OFTReceived",
      "type": "event"
    },
    {
      "anonymous": false,
      "inputs": [
        {
          "indexed": true,
          "internalType": "bytes32",
          "name": "guid",
          "type": "bytes32"
        },
        {
          "indexed": false,
          "internalType": "uint32",
          "name": "dstEid",
          "type": "uint32"
        },
        {
          "indexed": true,
          "internalType": "address",
          "name": "fromAddress",
          "type": "address"
        },
        {
          "indexed": false,
          "internalType": "uint256",
          "name": "amountSentLD",
          "type": "uint256"
        },
        {
          "indexed": false,
          "internalType": "uint256",
          "name": "amountReceivedLD",
          "type": "uint256"
        }
      ],
      "name": "OFTSent",
      "type": "event"
    },
    {
      "anonymous": false,
      "inputs": [
        {
          "indexed": true,
          "internalType": "address",
          "name": "previousOwner",
          "type": "address"
        },
        {
          "indexed": true,
          "internalType": "address",
          "name": "newOwner",
          "type": "address"
        }
      ],
      "name": "OwnershipTransferred",
      "type": "event"
    },
    {
      "anonymous": false,
      "inputs": [
        {
          "indexed": false,
          "internalType": "uint32",
          "name": "eid",
          "type": "uint32"
        },
        {
          "indexed": false,
          "internalType": "bytes32",
          "name": "peer",
          "type": "bytes32"
        }
      ],
      "name": "PeerSet",
      "type": "event"
    },
    {
      "anonymous": false,
      "inputs": [
        {
          "indexed": false,
          "internalType": "address",
          "name": "preCrimeAddress",
          "type": "address"
        }
      ],
      "name": "PreCrimeSet",
      "type": "event"
    },
    {
      "anonymous": false,
      "inputs": [
        {
          "indexed": true,
          "internalType": "address",
          "name": "from",
          "type": "address"
        },
        {
          "indexed": true,
          "internalType": "address",
          "name": "to",
          "type": "address"
        },
        {
          "indexed": false,
          "internalType": "uint256",
          "name": "value",
          "type": "uint256"
        }
      ],
      "name": "Transfer",
      "type": "event"
    },
    {
      "inputs": [],
      "name": "SEND",
      "outputs": [
        {
          "internalType": "uint16",
          "name": "",
          "type": "uint16"
        }
      ],
      "stateMutability": "view",
      "type": "function"
    },
    {
      "inputs": [],
      "name": "SEND_AND_CALL",
      "outputs": [
        {
          "internalType": "uint16",
          "name": "",
          "type": "uint16"
        }
      ],
      "stateMutability": "view",
      "type": "function"
    },
    {
      "inputs": [
        {
          "components": [
            {
              "internalType": "uint32",
              "name": "srcEid",
              "type": "uint32"
            },
            {
              "internalType": "bytes32",
              "name": "sender",
              "type": "bytes32"
            },
            {
              "internalType": "uint64",
              "name": "nonce",
              "type": "uint64"
            }
          ],
          "internalType": "struct Origin",
          "name": "origin",
          "type": "tuple"
        }
      ],
      "name": "allowInitializePath",
      "outputs": [
        {
          "internalType": "bool",
          "name": "",
          "type": "bool"
        }
      ],
      "stateMutability": "view",
      "type": "function"
    },
    {
      "inputs": [
        {
          "internalType": "address",
          "name": "owner",
          "type": "address"
        },
        {
          "internalType": "address",
          "name": "spender",
          "type": "address"
        }
      ],
      "name": "allowance",
      "outputs": [
        {
          "internalType": "uint256",
          "name": "",
          "type": "uint256"
        }
      ],
      "stateMutability": "view",
      "type": "function"
    },
    {
      "inputs": [],
      "name": "approvalRequired",
      "outputs": [
        {
          "internalType": "bool",
          "name": "",
          "type": "bool"
        }
      ],
      "stateMutability": "pure",
      "type": "function"
    },
    {
      "inputs": [
        {
          "internalType": "address",
          "name": "spender",
          "type": "address"
        },
        {
          "internalType": "uint256",
          "name": "value",
          "type": "uint256"
        }
      ],
      "name": "approve",
      "outputs": [
        {
          "internalType": "bool",
          "name": "",
          "type": "bool"
        }
      ],
      "stateMutability": "nonpayable",
      "type": "function"
    },
    {
      "inputs": [
        {
          "internalType": "address",
          "name": "account",
          "type": "address"
        }
      ],
      "name": "balanceOf",
      "outputs": [
        {
          "internalType": "uint256",
          "name": "",
          "type": "uint256"
        }
      ],
      "stateMutability": "view",
      "type": "function"
    },
    {
      "inputs": [
        {
          "internalType": "uint32",
          "name": "_eid",
          "type": "uint32"
        },
        {
          "internalType": "uint16",
          "name": "_msgType",
          "type": "uint16"
        },
        {
          "internalType": "bytes",
          "name": "_extraOptions",
          "type": "bytes"
        }
      ],
      "name": "combineOptions",
      "outputs": [
        {
          "internalType": "bytes",
          "name": "",
          "type": "bytes"
        }
      ],
      "stateMutability": "view",
      "type": "function"
    },
    {
      "inputs": [],
      "name": "decimalConversionRate",
      "outputs": [
        {
          "internalType": "uint256",
          "name": "",
          "type": "uint256"
        }
      ],
      "stateMutability": "view",
      "type": "function"
    },
    {
      "inputs": [],
      "name": "decimals",
      "outputs": [
        {
          "internalType": "uint8",
          "name": "",
          "type": "uint8"
        }
      ],
      "stateMutability": "view",
      "type": "function"
    },
    {
      "inputs": [],
      "name": "endpoint",
      "outputs": [
        {
          "internalType": "contract ILayerZeroEndpointV2",
          "name": "",
          "type": "address"
        }
      ],
      "stateMutability": "view",
      "type": "function"
    },
    {
      "inputs": [
        {
          "internalType": "uint32",
          "name": "eid",
          "type": "uint32"
        },
        {
          "internalType": "uint16",
          "name": "msgType",
          "type": "uint16"
        }
      ],
      "name": "enforcedOptions",
      "outputs": [
        {
          "internalType": "bytes",
          "name": "enforcedOption",
          "type": "bytes"
        }
      ],
      "stateMutability": "view",
      "type": "function"
    },
    {
      "inputs": [
        {
          "components": [
            {
              "internalType": "uint32",
              "name": "srcEid",
              "type": "uint32"
            },
            {
              "internalType": "bytes32",
              "name": "sender",
              "type": "bytes32"
            },
            {
              "internalType": "uint64",
              "name": "nonce",
              "type": "uint64"
            }
          ],
          "internalType": "struct Origin",
          "name": "",
          "type": "tuple"
        },
        {
          "internalType": "bytes",
          "name": "",
          "type": "bytes"
        },
        {
          "internalType": "address",
          "name": "_sender",
          "type": "address"
        }
      ],
      "name": "isComposeMsgSender",
      "outputs": [
        {
          "internalType": "bool",
          "name": "",
          "type": "bool"
        }
      ],
      "stateMutability": "view",
      "type": "function"
    },
    {
      "inputs": [
        {
          "internalType": "uint32",
          "name": "_eid",
          "type": "uint32"
        },
        {
          "internalType": "bytes32",
          "name": "_peer",
          "type": "bytes32"
        }
      ],
      "name": "isPeer",
      "outputs": [
        {
          "internalType": "bool",
          "name": "",
          "type": "bool"
        }
      ],
      "stateMutability": "view",
      "type": "function"
    },
    {
      "inputs": [
        {
          "components": [
            {
              "internalType": "uint32",
              "name": "srcEid",
              "type": "uint32"
            },
            {
              "internalType": "bytes32",
              "name": "sender",
              "type": "bytes32"
            },
            {
              "internalType": "uint64",
              "name": "nonce",
              "type": "uint64"
            }
          ],
          "internalType": "struct Origin",
          "name": "_origin",
          "type": "tuple"
        },
        {
          "internalType": "bytes32",
          "name": "_guid",
          "type": "bytes32"
        },
        {
          "internalType": "bytes",
          "name": "_message",
          "type": "bytes"
        },
        {
          "internalType": "address",
          "name": "_executor",
          "type": "address"
        },
        {
          "internalType": "bytes",
          "name": "_extraData",
          "type": "bytes"
        }
      ],
      "name": "lzReceive",
      "outputs": [],
      "stateMutability": "payable",
      "type": "function"
    },
    {
      "inputs": [
        {
          "components": [
            {
              "components": [
                {
                  "internalType": "uint32",
                  "name": "srcEid",
                  "type": "uint32"
                },
                {
                  "internalType": "bytes32",
                  "name": "sender",
                  "type": "bytes32"
                },
                {
                  "internalType": "uint64",
                  "name": "nonce",
                  "type": "uint64"
                }
              ],
              "internalType": "struct Origin",
              "name": "origin",
              "type": "tuple"
            },
            {
              "internalType": "uint32",
              "name": "dstEid",
              "type": "uint32"
            },
            {
              "internalType": "address",
              "name": "receiver",
              "type": "address"
            },
            {
              "internalType": "bytes32",
              "name": "guid",
              "type": "bytes32"
            },
            {
              "internalType": "uint256",
              "name": "value",
              "type": "uint256"
            },
            {
              "internalType": "address",
              "name": "executor",
              "type": "address"
            },
            {
              "internalType": "bytes",
              "name": "message",
              "type": "bytes"
            },
            {
              "internalType": "bytes",
              "name": "extraData",
              "type": "bytes"
            }
          ],
          "internalType": "struct InboundPacket[]",
          "name": "_packets",
          "type": "tuple[]"
        }
      ],
      "name": "lzReceiveAndRevert",
      "outputs": [],
      "stateMutability": "payable",
      "type": "function"
    },
    {
      "inputs": [
        {
          "components": [
            {
              "internalType": "uint32",
              "name": "srcEid",
              "type": "uint32"
            },
            {
              "internalType": "bytes32",
              "name": "sender",
              "type": "bytes32"
            },
            {
              "internalType": "uint64",
              "name": "nonce",
              "type": "uint64"
            }
          ],
          "internalType": "struct Origin",
          "name": "_origin",
          "type": "tuple"
        },
        {
          "internalType": "bytes32",
          "name": "_guid",
          "type": "bytes32"
        },
        {
          "internalType": "bytes",
          "name": "_message",
          "type": "bytes"
        },
        {
          "internalType": "address",
          "name": "_executor",
          "type": "address"
        },
        {
          "internalType": "bytes",
          "name": "_extraData",
          "type": "bytes"
        }
      ],
      "name": "lzReceiveSimulate",
      "outputs": [],
      "stateMutability": "payable",
      "type": "function"
    },
    {
      "inputs": [
        {
          "internalType": "address",
          "name": "_to",
          "type": "address"
        },
        {
          "internalType": "uint256",
          "name": "_amount",
          "type": "uint256"
        }
      ],
      "name": "mint",
      "outputs": [],
      "stateMutability": "nonpayable",
      "type": "function"
    },
    {
      "inputs": [],
      "name": "msgInspector",
      "outputs": [
        {
          "internalType": "address",
          "name": "",
          "type": "address"
        }
      ],
      "stateMutability": "view",
      "type": "function"
    },
    {
      "inputs": [],
      "name": "name",
      "outputs": [
        {
          "internalType": "string",
          "name": "",
          "type": "string"
        }
      ],
      "stateMutability": "view",
      "type": "function"
    },
    {
      "inputs": [
        {
          "internalType": "uint32",
          "name": "",
          "type": "uint32"
        },
        {
          "internalType": "bytes32",
          "name": "",
          "type": "bytes32"
        }
      ],
      "name": "nextNonce",
      "outputs": [
        {
          "internalType": "uint64",
          "name": "nonce",
          "type": "uint64"
        }
      ],
      "stateMutability": "view",
      "type": "function"
    },
    {
      "inputs": [],
      "name": "oApp",
      "outputs": [
        {
          "internalType": "address",
          "name": "",
          "type": "address"
        }
      ],
      "stateMutability": "view",
      "type": "function"
    },
    {
      "inputs": [],
      "name": "oAppVersion",
      "outputs": [
        {
          "internalType": "uint64",
          "name": "senderVersion",
          "type": "uint64"
        },
        {
          "internalType": "uint64",
          "name": "receiverVersion",
          "type": "uint64"
        }
      ],
      "stateMutability": "pure",
      "type": "function"
    },
    {
      "inputs": [],
      "name": "oftVersion",
      "outputs": [
        {
          "internalType": "bytes4",
          "name": "interfaceId",
          "type": "bytes4"
        },
        {
          "internalType": "uint64",
          "name": "version",
          "type": "uint64"
        }
      ],
      "stateMutability": "pure",
      "type": "function"
    },
    {
      "inputs": [],
      "name": "owner",
      "outputs": [
        {
          "internalType": "address",
          "name": "",
          "type": "address"
        }
      ],
      "stateMutability": "view",
      "type": "function"
    },
    {
      "inputs": [
        {
          "internalType": "uint32",
          "name": "eid",
          "type": "uint32"
        }
      ],
      "name": "peers",
      "outputs": [
        {
          "internalType": "bytes32",
          "name": "peer",
          "type": "bytes32"
        }
      ],
      "stateMutability": "view",
      "type": "function"
    },
    {
      "inputs": [],
      "name": "preCrime",
      "outputs": [
        {
          "internalType": "address",
          "name": "",
          "type": "address"
        }
      ],
      "stateMutability": "view",
      "type": "function"
    },
    {
      "inputs": [
        {
          "components": [
            {
              "internalType": "uint32",
              "name": "dstEid",
              "type": "uint32"
            },
            {
              "internalType": "bytes32",
              "name": "to",
              "type": "bytes32"
            },
            {
              "internalType": "uint256",
              "name": "amountLD",
              "type": "uint256"
            },
            {
              "internalType": "uint256",
              "name": "minAmountLD",
              "type": "uint256"
            },
            {
              "internalType": "bytes",
              "name": "extraOptions",
              "type": "bytes"
            },
            {
              "internalType": "bytes",
              "name": "composeMsg",
              "type": "bytes"
            },
            {
              "internalType": "bytes",
              "name": "oftCmd",
              "type": "bytes"
            }
          ],
          "internalType": "struct SendParam",
          "name": "_sendParam",
          "type": "tuple"
        }
      ],
      "name": "quoteOFT",
      "outputs": [
        {
          "components": [
            {
              "internalType": "uint256",
              "name": "minAmountLD",
              "type": "uint256"
            },
            {
              "internalType": "uint256",
              "name": "maxAmountLD",
              "type": "uint256"
            }
          ],
          "internalType": "struct OFTLimit",
          "name": "oftLimit",
          "type": "tuple"
        },
        {
          "components": [
            {
              "internalType": "int256",
              "name": "feeAmountLD",
              "type": "int256"
            },
            {
              "internalType": "string",
              "name": "description",
              "type": "string"
            }
          ],
          "internalType": "struct OFTFeeDetail[]",
          "name": "oftFeeDetails",
          "type": "tuple[]"
        },
        {
          "components": [
            {
              "internalType": "uint256",
              "name": "amountSentLD",
              "type": "uint256"
            },
            {
              "internalType": "uint256",
              "name": "amountReceivedLD",
              "type": "uint256"
            }
          ],
          "internalType": "struct OFTReceipt",
          "name": "oftReceipt",
          "type": "tuple"
        }
      ],
      "stateMutability": "view",
      "type": "function"
    },
    {
      "inputs": [
        {
          "components": [
            {
              "internalType": "uint32",
              "name": "dstEid",
              "type": "uint32"
            },
            {
              "internalType": "bytes32",
              "name": "to",
              "type": "bytes32"
            },
            {
              "internalType": "uint256",
              "name": "amountLD",
              "type": "uint256"
            },
            {
              "internalType": "uint256",
              "name": "minAmountLD",
              "type": "uint256"
            },
            {
              "internalType": "bytes",
              "name": "extraOptions",
              "type": "bytes"
            },
            {
              "internalType": "bytes",
              "name": "composeMsg",
              "type": "bytes"
            },
            {
              "internalType": "bytes",
              "name": "oftCmd",
              "type": "bytes"
            }
          ],
          "internalType": "struct SendParam",
          "name": "_sendParam",
          "type": "tuple"
        },
        {
          "internalType": "bool",
          "name": "_payInLzToken",
          "type": "bool"
        }
      ],
      "name": "quoteSend",
      "outputs": [
        {
          "components": [
            {
              "internalType": "uint256",
              "name": "nativeFee",
              "type": "uint256"
            },
            {
              "internalType": "uint256",
              "name": "lzTokenFee",
              "type": "uint256"
            }
          ],
          "internalType": "struct MessagingFee",
          "name": "msgFee",
          "type": "tuple"
        }
      ],
      "stateMutability": "view",
      "type": "function"
    },
    {
      "inputs": [],
      "name": "renounceOwnership",
      "outputs": [],
      "stateMutability": "nonpayable",
      "type": "function"
    },
    {
      "inputs": [
        {
          "components": [
            {
              "internalType": "uint32",
              "name": "dstEid",
              "type": "uint32"
            },
            {
              "internalType": "bytes32",
              "name": "to",
              "type": "bytes32"
            },
            {
              "internalType": "uint256",
              "name": "amountLD",
              "type": "uint256"
            },
            {
              "internalType": "uint256",
              "name": "minAmountLD",
              "type": "uint256"
            },
            {
              "internalType": "bytes",
              "name": "extraOptions",
              "type": "bytes"
            },
            {
              "internalType": "bytes",
              "name": "composeMsg",
              "type": "bytes"
            },
            {
              "internalType": "bytes",
              "name": "oftCmd",
              "type": "bytes"
            }
          ],
          "internalType": "struct SendParam",
          "name": "_sendParam",
          "type": "tuple"
        },
        {
          "components": [
            {
              "internalType": "uint256",
              "name": "nativeFee",
              "type": "uint256"
            },
            {
              "internalType": "uint256",
              "name": "lzTokenFee",
              "type": "uint256"
            }
          ],
          "internalType": "struct MessagingFee",
          "name": "_fee",
          "type": "tuple"
        },
        {
          "internalType": "address",
          "name": "_refundAddress",
          "type": "address"
        }
      ],
      "name": "send",
      "outputs": [
        {
          "components": [
            {
              "internalType": "bytes32",
              "name": "guid",
              "type": "bytes32"
            },
            {
              "internalType": "uint64",
              "name": "nonce",
              "type": "uint64"
            },
            {
              "components": [
                {
                  "internalType": "uint256",
                  "name": "nativeFee",
                  "type": "uint256"
                },
                {
                  "internalType": "uint256",
                  "name": "lzTokenFee",
                  "type": "uint256"
                }
              ],
              "internalType": "struct MessagingFee",
              "name": "fee",
              "type": "tuple"
            }
          ],
          "internalType": "struct MessagingReceipt",
          "name": "msgReceipt",
          "type": "tuple"
        },
        {
          "components": [
            {
              "internalType": "uint256",
              "name": "amountSentLD",
              "type": "uint256"
            },
            {
              "internalType": "uint256",
              "name": "amountReceivedLD",
              "type": "uint256"
            }
          ],
          "internalType": "struct OFTReceipt",
          "name": "oftReceipt",
          "type": "tuple"
        }
      ],
      "stateMutability": "payable",
      "type": "function"
    },
    {
      "inputs": [
        {
          "internalType": "address",
          "name": "_delegate",
          "type": "address"
        }
      ],
      "name": "setDelegate",
      "outputs": [],
      "stateMutability": "nonpayable",
      "type": "function"
    },
    {
      "inputs": [
        {
          "components": [
            {
              "internalType": "uint32",
              "name": "eid",
              "type": "uint32"
            },
            {
              "internalType": "uint16",
              "name": "msgType",
              "type": "uint16"
            },
            {
              "internalType": "bytes",
              "name": "options",
              "type": "bytes"
            }
          ],
          "internalType": "struct EnforcedOptionParam[]",
          "name": "_enforcedOptions",
          "type": "tuple[]"
        }
      ],
      "name": "setEnforcedOptions",
      "outputs": [],
      "stateMutability": "nonpayable",
      "type": "function"
    },
    {
      "inputs": [
        {
          "internalType": "address",
          "name": "_msgInspector",
          "type": "address"
        }
      ],
      "name": "setMsgInspector",
      "outputs": [],
      "stateMutability": "nonpayable",
      "type": "function"
    },
    {
      "inputs": [
        {
          "internalType": "uint32",
          "name": "_eid",
          "type": "uint32"
        },
        {
          "internalType": "bytes32",
          "name": "_peer",
          "type": "bytes32"
        }
      ],
      "name": "setPeer",
      "outputs": [],
      "stateMutability": "nonpayable",
      "type": "function"
    },
    {
      "inputs": [
        {
          "internalType": "address",
          "name": "_preCrime",
          "type": "address"
        }
      ],
      "name": "setPreCrime",
      "outputs": [],
      "stateMutability": "nonpayable",
      "type": "function"
    },
    {
      "inputs": [],
      "name": "sharedDecimals",
      "outputs": [
        {
          "internalType": "uint8",
          "name": "",
          "type": "uint8"
        }
      ],
      "stateMutability": "view",
      "type": "function"
    },
    {
      "inputs": [],
      "name": "symbol",
      "outputs": [
        {
          "internalType": "string",
          "name": "",
          "type": "string"
        }
      ],
      "stateMutability": "view",
      "type": "function"
    },
    {
      "inputs": [],
      "name": "token",
      "outputs": [
        {
          "internalType": "address",
          "name": "",
          "type": "address"
        }
      ],
      "stateMutability": "view",
      "type": "function"
    },
    {
      "inputs": [],
      "name": "totalSupply",
      "outputs": [
        {
          "internalType": "uint256",
          "name": "",
          "type": "uint256"
        }
      ],
      "stateMutability": "view",
      "type": "function"
    },
    {
      "inputs": [
        {
          "internalType": "address",
          "name": "to",
          "type": "address"
        },
        {
          "internalType": "uint256",
          "name": "value",
          "type": "uint256"
        }
      ],
      "name": "transfer",
      "outputs": [
        {
          "internalType": "bool",
          "name": "",
          "type": "bool"
        }
      ],
      "stateMutability": "nonpayable",
      "type": "function"
    },
    {
      "inputs": [
        {
          "internalType": "address",
          "name": "from",
          "type": "address"
        },
        {
          "internalType": "address",
          "name": "to",
          "type": "address"
        },
        {
          "internalType": "uint256",
          "name": "value",
          "type": "uint256"
        }
      ],
      "name": "transferFrom",
      "outputs": [
        {
          "internalType": "bool",
          "name": "",
          "type": "bool"
        }
      ],
      "stateMutability": "nonpayable",
      "type": "function"
    },
    {
      "inputs": [
        {
          "internalType": "address",
          "name": "newOwner",
          "type": "address"
        }
      ],
      "name": "transferOwnership",
      "outputs": [],
      "stateMutability": "nonpayable",
      "type": "function"
    }
  ],
  "bytecode": "0x60c06040523480156200001157600080fd5b5060405162003781380380620037818339810160408190526200003491620002da565b8383838383838383838360128484818181818d6001600160a01b0381166200007657604051631e4fbdf760e01b81526000600482015260240160405180910390fd5b6200008181620001a0565b506001600160a01b038083166080528116620000b057604051632d618d8160e21b815260040160405180910390fd5b60805160405163ca5eb5e160e01b81526001600160a01b0383811660048301529091169063ca5eb5e190602401600060405180830381600087803b158015620000f857600080fd5b505af11580156200010d573d6000803e3d6000fd5b505050505050505062000125620001f060201b60201c565b60ff168360ff1610156200014c576040516301e9714b60e41b815260040160405180910390fd5b620001596006846200037f565b6200016690600a6200049e565b60a05250600891506200017c9050838262000547565b5060096200018b828262000547565b50505050505050505050505050505062000613565b600080546001600160a01b038381166001600160a01b0319831681178455604051919092169283917f8be0079c531659141344cd1fd0a4f28419497f9722a3daafe3b4186f6b6457e09190a35050565b600690565b634e487b7160e01b600052604160045260246000fd5b600082601f8301126200021d57600080fd5b81516001600160401b03808211156200023a576200023a620001f5565b604051601f8301601f19908116603f01168101908282118183101715620002655762000265620001f5565b81604052838152602092508660208588010111156200028357600080fd5b600091505b83821015620002a7578582018301518183018401529082019062000288565b6000602085830101528094505050505092915050565b80516001600160a01b0381168114620002d557600080fd5b919050565b60008060008060808587031215620002f157600080fd5b84516001600160401b03808211156200030957600080fd5b62000317888389016200020b565b955060208701519150808211156200032e57600080fd5b506200033d878288016200020b565b9350506200034e60408601620002bd565b91506200035e60608601620002bd565b905092959194509250565b634e487b7160e01b600052601160045260246000fd5b60ff82811682821603908111156200039b576200039b62000369565b92915050565b600181815b80851115620003e2578160001904821115620003c657620003c662000369565b80851615620003d457918102915b93841c9390800290620003a6565b509250929050565b600082620003fb575060016200039b565b816200040a575060006200039b565b81600181146200042357600281146200042e576200044e565b60019150506200039b565b60ff84111562000442576200044262000369565b50506001821b6200039b565b5060208310610133831016604e8410600b841016171562000473575081810a6200039b565b6200047f8383620003a1565b806000190482111562000496576200049662000369565b029392505050565b6000620004af60ff841683620003ea565b9392505050565b600181811c90821680620004cb57607f821691505b602082108103620004ec57634e487b7160e01b600052602260045260246000fd5b50919050565b601f82111562000542576000816000526020600020601f850160051c810160208610156200051d5750805b601f850160051c820191505b818110156200053e5782815560010162000529565b5050505b505050565b81516001600160401b03811115620005635762000563620001f5565b6200057b81620005748454620004b6565b84620004f2565b602080601f831160018114620005b357600084156200059a5750858301515b600019600386901b1c1916600185901b1785556200053e565b600085815260208120601f198616915b82811015620005e457888601518255948401946001909101908401620005c3565b5085821015620006035787850151600019600388901b60f8161c191681555b5050505050600190811b01905550565b60805160a0516131026200067f6000396000818161064901528181611b0c01528181611b810152611d8501526000818161050801528181610a78015281816110d201528181611349015281816116b401528181611e7d01528181611fb7015261206e01526131026000f3fe60806040526004361061025c5760003560e01c8063715018a611610144578063bb0b6a53116100b6578063d045a0dc1161007a578063d045a0dc14610780578063d424388514610793578063dd62ed3e146107b3578063f2fde38b146107f9578063fc0c546a1461048c578063ff7bd03d1461081957600080fd5b8063bb0b6a53146106df578063bc70b3541461070c578063bd815db01461072c578063c7c7f5b31461073f578063ca5eb5e11461076057600080fd5b806395d89b411161010857806395d89b4114610622578063963efcaa146106375780639f68b9641461066b578063a9059cbb1461067f578063b731ea0a1461069f578063b98bd070146106bf57600080fd5b8063715018a6146105805780637d25a05e1461059557806382413eac146105d0578063857749b0146105f05780638da5cb5b1461060457600080fd5b806323b872dd116101dd57806352ae2879116101a157806352ae28791461048c5780635535d4611461049f5780635a0dfe4d146104bf5780635e280f11146104f65780636fc1b31e1461052a57806370a082311461054a57600080fd5b806323b872dd146103dd578063313ce567146103fd5780633400288b1461041f5780633b6f743b1461043f57806340c10f191461046c57600080fd5b8063134d4f2511610224578063134d4f2514610338578063156a0d0f1461036057806317442b701461038757806318160ddd146103a95780631f5e1334146103c857600080fd5b806306fdde0314610261578063095ea7b31461028c5780630d35b415146102bc578063111ecdad146102eb57806313137d6514610323575b600080fd5b34801561026d57600080fd5b50610276610839565b60405161028391906121e6565b60405180910390f35b34801561029857600080fd5b506102ac6102a736600461220e565b6108cb565b6040519015158152602001610283565b3480156102c857600080fd5b506102dc6102d7366004612252565b6108e5565b60405161028393929190612286565b3480156102f757600080fd5b5060045461030b906001600160a01b031681565b6040516001600160a01b039091168152602001610283565b610336610331366004612379565b610a76565b005b34801561034457600080fd5b5061034d600281565b60405161ffff9091168152602001610283565b34801561036c57600080fd5b506040805162b9270b60e21b81526001602082015201610283565b34801561039357600080fd5b5060408051600181526002602082015201610283565b3480156103b557600080fd5b506007545b604051908152602001610283565b3480156103d457600080fd5b5061034d600181565b3480156103e957600080fd5b506102ac6103f8366004612418565b610b36565b34801561040957600080fd5b5060125b60405160ff9091168152602001610283565b34801561042b57600080fd5b5061033661043a366004612472565b610b5c565b34801561044b57600080fd5b5061045f61045a36600461249c565b610b72565b60405161028391906124ed565b34801561047857600080fd5b5061033661048736600461220e565b610bd9565b34801561049857600080fd5b503061030b565b3480156104ab57600080fd5b506102766104ba366004612516565b610be3565b3480156104cb57600080fd5b506102ac6104da366004612472565b63ffffffff919091166000908152600160205260409020541490565b34801561050257600080fd5b5061030b7f000000000000000000000000000000000000000000000000000000000000000081565b34801561053657600080fd5b50610336610545366004612549565b610c88565b34801561055657600080fd5b506103ba610565366004612549565b6001600160a01b031660009081526005602052604090205490565b34801561058c57600080fd5b50610336610ce5565b3480156105a157600080fd5b506105b86105b0366004612472565b600092915050565b6040516001600160401b039091168152602001610283565b3480156105dc57600080fd5b506102ac6105eb366004612566565b610cf9565b3480156105fc57600080fd5b50600661040d565b34801561061057600080fd5b506000546001600160a01b031661030b565b34801561062e57600080fd5b50610276610d0e565b34801561064357600080fd5b506103ba7f000000000000000000000000000000000000000000000000000000000000000081565b34801561067757600080fd5b5060006102ac565b34801561068b57600080fd5b506102ac61069a36600461220e565b610d1d565b3480156106ab57600080fd5b5060025461030b906001600160a01b031681565b3480156106cb57600080fd5b506103366106da366004612610565b610d2b565b3480156106eb57600080fd5b506103ba6106fa366004612651565b60016020526000908152604090205481565b34801561071857600080fd5b5061027661072736600461266c565b610d45565b61033661073a366004612610565b610eed565b61075261074d3660046126cc565b611077565b604051610283929190612739565b34801561076c57600080fd5b5061033661077b366004612549565b6110ab565b61033661078e366004612379565b611131565b34801561079f57600080fd5b506103366107ae366004612549565b611160565b3480156107bf57600080fd5b506103ba6107ce36600461278b565b6001600160a01b03918216600090815260066020908152604080832093909416825291909152205490565b34801561080557600080fd5b50610336610814366004612549565b6111b6565b34801561082557600080fd5b506102ac6108343660046127b9565b6111f4565b606060088054610848906127d5565b80601f0160208091040260200160405190810160405280929190818152602001828054610874906127d5565b80156108c15780601f10610896576101008083540402835291602001916108c1565b820191906000526020600020905b8154815290600101906020018083116108a457829003601f168201915b5050505050905090565b6000336108d981858561122a565b60019150505b92915050565b60408051808201909152600080825260208201526060610918604051806040016040528060008152602001600081525090565b600080306001600160a01b031663fc0c546a6040518163ffffffff1660e01b8152600401602060405180830381865afa158015610959573d6000803e3d6000fd5b505050506040513d601f19601f8201168201806040525081019061097d9190612809565b6001600160a01b03166318160ddd6040518163ffffffff1660e01b8152600401602060405180830381865afa1580156109ba573d6000803e3d6000fd5b505050506040513d601f19601f820116820180604052508101906109de9190612826565b60408051808201825284815260208082018490528251600080825291810190935290975091925090610a33565b604080518082019091526000815260606020820152815260200190600190039081610a0b5790505b509350600080610a58604089013560608a0135610a5360208c018c612651565b61123c565b60408051808201909152918252602082015296989597505050505050565b7f00000000000000000000000000000000000000000000000000000000000000006001600160a01b03163314610ac6576040516391ac5e4f60e01b81523360048201526024015b60405180910390fd5b60208701803590610ae090610adb908a612651565b611278565b14610b1e57610af26020880188612651565b60405163309afaf360e21b815263ffffffff909116600482015260208801356024820152604401610abd565b610b2d878787878787876112b4565b50505050505050565b600033610b4485828561141b565b610b4f85858561149a565b60019150505b9392505050565b610b646114f9565b610b6e8282611526565b5050565b60408051808201909152600080825260208201526000610ba260408501356060860135610a536020880188612651565b915050600080610bb2868461157b565b9092509050610bcf610bc76020880188612651565b83838861169e565b9695505050505050565b610b6e828261177f565b600360209081526000928352604080842090915290825290208054610c07906127d5565b80601f0160208091040260200160405190810160405280929190818152602001828054610c33906127d5565b8015610c805780601f10610c5557610100808354040283529160200191610c80565b820191906000526020600020905b815481529060010190602001808311610c6357829003601f168201915b505050505081565b610c906114f9565b600480546001600160a01b0319166001600160a01b0383169081179091556040519081527ff0be4f1e87349231d80c36b33f9e8639658eeaf474014dee15a3e6a4d4414197906020015b60405180910390a150565b610ced6114f9565b610cf760006117b5565b565b6001600160a01b03811630145b949350505050565b606060098054610848906127d5565b6000336108d981858561149a565b610d336114f9565b610b6e610d4082846128f6565b611805565b63ffffffff8416600090815260036020908152604080832061ffff87168452909152812080546060929190610d79906127d5565b80601f0160208091040260200160405190810160405280929190818152602001828054610da5906127d5565b8015610df25780601f10610dc757610100808354040283529160200191610df2565b820191906000526020600020905b815481529060010190602001808311610dd557829003601f168201915b505050505090508051600003610e425783838080601f016020809104026020016040519081016040528093929190818152602001838380828437600092019190915250929450610d069350505050565b6000839003610e52579050610d06565b60028310610ed057610e9984848080601f01602080910402602001604051908101604052809392919081815260200183838082843760009201919091525061190c92505050565b80610ea78460028188612a0b565b604051602001610eb993929190612a35565b604051602081830303815290604052915050610d06565b8383604051639a6d49cd60e01b8152600401610abd929190612a86565b60005b81811015610ff65736838383818110610f0b57610f0b612a9a565b9050602002810190610f1d9190612ab0565b9050610f50610f2f6020830183612651565b602083013563ffffffff919091166000908152600160205260409020541490565b610f5a5750610fee565b3063d045a0dc60c08301358360a0810135610f79610100830183612ad1565b610f8a610100890160e08a01612549565b610f986101208a018a612ad1565b6040518963ffffffff1660e01b8152600401610fba9796959493929190612b2c565b6000604051808303818588803b158015610fd357600080fd5b505af1158015610fe7573d6000803e3d6000fd5b5050505050505b600101610ef0565b50336001600160a01b0316638e9e70996040518163ffffffff1660e01b8152600401600060405180830381865afa158015611035573d6000803e3d6000fd5b505050506040513d6000823e601f3d908101601f1916820160405261105d9190810190612bb2565b604051638351eea760e01b8152600401610abd91906121e6565b61107f61214f565b604080518082019091526000808252602082015261109e858585611938565b915091505b935093915050565b6110b36114f9565b60405163ca5eb5e160e01b81526001600160a01b0382811660048301527f0000000000000000000000000000000000000000000000000000000000000000169063ca5eb5e190602401600060405180830381600087803b15801561111657600080fd5b505af115801561112a573d6000803e3d6000fd5b5050505050565b3330146111515760405163029a949d60e31b815260040160405180910390fd5b610b2d87878787878787610b1e565b6111686114f9565b600280546001600160a01b0319166001600160a01b0383169081179091556040519081527fd48d879cef83a1c0bdda516f27b13ddb1b3f8bbac1c9e1511bb2a659c242776090602001610cda565b6111be6114f9565b6001600160a01b0381166111e857604051631e4fbdf760e01b815260006004820152602401610abd565b6111f1816117b5565b50565b600060208201803590600190839061120c9086612651565b63ffffffff1681526020810191909152604001600020541492915050565b6112378383836001611a33565b505050565b60008061124885611b08565b9150819050838110156110a3576040516371c4efed60e01b81526004810182905260248101859052604401610abd565b63ffffffff8116600090815260016020526040812054806108df5760405163f6ff4fb760e01b815263ffffffff84166004820152602401610abd565b60006112c66112c38787611b3f565b90565b905060006112f2826112e06112db8a8a611b57565b611b7a565b6112ed60208d018d612651565b611baf565b905060288611156113b957600061132f61131260608c0160408d01612c1f565b61131f60208d018d612651565b8461132a8c8c611bd7565b611c22565b604051633e5ac80960e11b81529091506001600160a01b037f00000000000000000000000000000000000000000000000000000000000000001690637cb59012906113859086908d906000908790600401612c3c565b600060405180830381600087803b15801561139f57600080fd5b505af11580156113b3573d6000803e3d6000fd5b50505050505b6001600160a01b038216887fefed6d3500546b29533b128a29e3a94d70788727f0507505ac12eaf2e578fd9c6113f260208d018d612651565b6040805163ffffffff9092168252602082018690520160405180910390a3505050505050505050565b6001600160a01b03838116600090815260066020908152604080832093861683529290522054600019811015611494578181101561148557604051637dc7a0d960e11b81526001600160a01b03841660048201526024810182905260448101839052606401610abd565b61149484848484036000611a33565b50505050565b6001600160a01b0383166114c457604051634b637e8f60e11b815260006004820152602401610abd565b6001600160a01b0382166114ee5760405163ec442f0560e01b815260006004820152602401610abd565b611237838383611c54565b6000546001600160a01b03163314610cf75760405163118cdaa760e01b8152336004820152602401610abd565b63ffffffff8216600081815260016020908152604091829020849055815192835282018390527f238399d427b947898edb290f5ff0f9109849b1c3ba196a42e35f00c50a54b98b910160405180910390a15050565b60608060006115d8856020013561159186611d7e565b61159e60a0890189612ad1565b8080601f016020809104026020016040519081016040528093929190818152602001838380828437600092019190915250611daa92505050565b90935090506000816115eb5760016115ee565b60025b905061160e6116006020880188612651565b8261072760808a018a612ad1565b6004549093506001600160a01b031680156116945760405163043a78eb60e01b81526001600160a01b0382169063043a78eb906116519088908890600401612c6d565b602060405180830381865afa15801561166e573d6000803e3d6000fd5b505050506040513d601f19601f820116820180604052508101906116929190612c92565b505b5050509250929050565b60408051808201909152600080825260208201527f00000000000000000000000000000000000000000000000000000000000000006001600160a01b031663ddc28c586040518060a001604052808863ffffffff16815260200161170189611278565b8152602001878152602001868152602001851515815250306040518363ffffffff1660e01b8152600401611736929190612caf565b6040805180830381865afa158015611752573d6000803e3d6000fd5b505050506040513d601f19601f820116820180604052508101906117769190612d58565b95945050505050565b6001600160a01b0382166117a95760405163ec442f0560e01b815260006004820152602401610abd565b610b6e60008383611c54565b600080546001600160a01b038381166001600160a01b0319831681178455604051919092169283917f8be0079c531659141344cd1fd0a4f28419497f9722a3daafe3b4186f6b6457e09190a35050565b60005b81518110156118dc5761183782828151811061182657611826612a9a565b60200260200101516040015161190c565b81818151811061184957611849612a9a565b6020026020010151604001516003600084848151811061186b5761186b612a9a565b60200260200101516000015163ffffffff1663ffffffff16815260200190815260200160002060008484815181106118a5576118a5612a9a565b60200260200101516020015161ffff1661ffff16815260200190815260200160002090816118d39190612dc4565b50600101611808565b507fbe4864a8e820971c0247f5992e2da559595f7bf076a21cb5928d443d2a13b67481604051610cda9190612e83565b600281015161ffff8116600314610b6e5781604051639a6d49cd60e01b8152600401610abd91906121e6565b61194061214f565b604080518082019091526000808252602082015260008061197733604089013560608a013561197260208c018c612651565b611e24565b91509150600080611988898461157b565b90925090506119b461199d60208b018b612651565b83836119ae368d90038d018d612f0e565b8b611e4a565b60408051808201909152858152602080820186905282519298509096503391907f85496b760a4b7f8d66384b9df21b381f5d1b1e79f229a47aaf4c232edc2fe59a90611a02908d018d612651565b6040805163ffffffff909216825260208201899052810187905260600160405180910390a350505050935093915050565b6001600160a01b038416611a5d5760405163e602df0560e01b815260006004820152602401610abd565b6001600160a01b038316611a8757604051634a1406b160e11b815260006004820152602401610abd565b6001600160a01b038085166000908152600660209081526040808320938716835292905220829055801561149457826001600160a01b0316846001600160a01b03167f8c5be1e5ebec7d5bd14f71427d1e84f3dd0314c0f7b2291e5b200ac8c7c3b92584604051611afa91815260200190565b60405180910390a350505050565b60007f0000000000000000000000000000000000000000000000000000000000000000611b358184612f56565b6108df9190612f78565b6000611b4e6020828486612a0b565b610b5591612f8f565b6000611b67602860208486612a0b565b611b7091612fad565b60c01c9392505050565b60006108df7f00000000000000000000000000000000000000000000000000000000000000006001600160401b038416612f78565b60006001600160a01b038416611bc55761dead93505b611bcf848461177f565b509092915050565b6060611be68260288186612a0b565b8080601f016020809104026020016040519081016040528093929190818152602001838380828437600092019190915250929695505050505050565b606084848484604051602001611c3b9493929190612fdd565b6040516020818303038152906040529050949350505050565b6001600160a01b038316611c7f578060076000828254611c74919061302c565b90915550611cf19050565b6001600160a01b03831660009081526005602052604090205481811015611cd25760405163391434e360e21b81526001600160a01b03851660048201526024810182905260448101839052606401610abd565b6001600160a01b03841660009081526005602052604090209082900390555b6001600160a01b038216611d0d57600780548290039055611d2c565b6001600160a01b03821660009081526005602052604090208054820190555b816001600160a01b0316836001600160a01b03167fddf252ad1be2c89b69c2b068fc378daa952ba7f163c4a11628f55a4df523b3ef83604051611d7191815260200190565b60405180910390a3505050565b60006108df7f000000000000000000000000000000000000000000000000000000000000000083612f56565b8051606090151580611df3578484604051602001611ddf92919091825260c01b6001600160c01b031916602082015260280190565b604051602081830303815290604052611e1a565b84843385604051602001611e0a949392919061303f565b6040516020818303038152906040525b9150935093915050565b600080611e3285858561123c565b9092509050611e418683611f55565b94509492505050565b611e5261214f565b6000611e618460000151611f8b565b602085015190915015611e7b57611e7b8460200151611fb3565b7f00000000000000000000000000000000000000000000000000000000000000006001600160a01b0316632637a450826040518060a001604052808b63ffffffff168152602001611ecb8c611278565b81526020018a815260200189815260200160008960200151111515815250866040518463ffffffff1660e01b8152600401611f07929190612caf565b60806040518083038185885af1158015611f25573d6000803e3d6000fd5b50505050506040513d601f19601f82011682018060405250810190611f4a9190613082565b979650505050505050565b6001600160a01b038216611f7f57604051634b637e8f60e11b815260006004820152602401610abd565b610b6e82600083611c54565b6000813414611faf576040516304fb820960e51b8152346004820152602401610abd565b5090565b60007f00000000000000000000000000000000000000000000000000000000000000006001600160a01b031663e4fe1d946040518163ffffffff1660e01b8152600401602060405180830381865afa158015612013573d6000803e3d6000fd5b505050506040513d601f19601f820116820180604052508101906120379190612809565b90506001600160a01b038116612060576040516329b99a9560e11b815260040160405180910390fd5b6040805133602482018190527f00000000000000000000000000000000000000000000000000000000000000006001600160a01b0381811660448501526064808501889052855180860390910181526084909401909452602080840180516001600160e01b03166323b872dd60e01b1781528451610b6e96881695899361149493889360009283929091839182885af180612101576040513d6000823e3d81fd5b50506000513d91508115612119578060011415612126565b6001600160a01b0384163b155b1561149457604051635274afe760e01b81526001600160a01b0385166004820152602401610abd565b60405180606001604052806000801916815260200160006001600160401b03168152602001612191604051806040016040528060008152602001600081525090565b905290565b60005b838110156121b1578181015183820152602001612199565b50506000910152565b600081518084526121d2816020860160208601612196565b601f01601f19169290920160200192915050565b602081526000610b5560208301846121ba565b6001600160a01b03811681146111f157600080fd5b6000806040838503121561222157600080fd5b823561222c816121f9565b946020939093013593505050565b600060e0828403121561224c57600080fd5b50919050565b60006020828403121561226457600080fd5b81356001600160401b0381111561227a57600080fd5b610d068482850161223a565b8351815260208085015190820152600060a08201604060a0604085015281865180845260c08601915060c08160051b8701019350602080890160005b838110156123015788870360bf190185528151805188528301518388018790526122ee878901826121ba565b97505093820193908201906001016122c2565b50508751606088015250505060208501516080850152509050610d06565b60006060828403121561224c57600080fd5b60008083601f84011261234357600080fd5b5081356001600160401b0381111561235a57600080fd5b60208301915083602082850101111561237257600080fd5b9250929050565b600080600080600080600060e0888a03121561239457600080fd5b61239e898961231f565b96506060880135955060808801356001600160401b03808211156123c157600080fd5b6123cd8b838c01612331565b909750955060a08a013591506123e2826121f9565b90935060c089013590808211156123f857600080fd5b506124058a828b01612331565b989b979a50959850939692959293505050565b60008060006060848603121561242d57600080fd5b8335612438816121f9565b92506020840135612448816121f9565b929592945050506040919091013590565b803563ffffffff8116811461246d57600080fd5b919050565b6000806040838503121561248557600080fd5b61222c83612459565b80151581146111f157600080fd5b600080604083850312156124af57600080fd5b82356001600160401b038111156124c557600080fd5b6124d18582860161223a565b92505060208301356124e28161248e565b809150509250929050565b8151815260208083015190820152604081016108df565b803561ffff8116811461246d57600080fd5b6000806040838503121561252957600080fd5b61253283612459565b915061254060208401612504565b90509250929050565b60006020828403121561255b57600080fd5b8135610b55816121f9565b60008060008060a0858703121561257c57600080fd5b612586868661231f565b935060608501356001600160401b038111156125a157600080fd5b6125ad87828801612331565b90945092505060808501356125c1816121f9565b939692955090935050565b60008083601f8401126125de57600080fd5b5081356001600160401b038111156125f557600080fd5b6020830191508360208260051b850101111561237257600080fd5b6000806020838503121561262357600080fd5b82356001600160401b0381111561263957600080fd5b612645858286016125cc565b90969095509350505050565b60006020828403121561266357600080fd5b610b5582612459565b6000806000806060858703121561268257600080fd5b61268b85612459565b935061269960208601612504565b925060408501356001600160401b038111156126b457600080fd5b6126c087828801612331565b95989497509550505050565b600080600083850360808112156126e257600080fd5b84356001600160401b038111156126f857600080fd5b6127048782880161223a565b9450506040601f198201121561271957600080fd5b50602084019150606084013561272e816121f9565b809150509250925092565b600060c082019050835182526001600160401b0360208501511660208301526040840151612774604084018280518252602090810151910152565b5082516080830152602083015160a0830152610b55565b6000806040838503121561279e57600080fd5b82356127a9816121f9565b915060208301356124e2816121f9565b6000606082840312156127cb57600080fd5b610b55838361231f565b600181811c908216806127e957607f821691505b60208210810361224c57634e487b7160e01b600052602260045260246000fd5b60006020828403121561281b57600080fd5b8151610b55816121f9565b60006020828403121561283857600080fd5b5051919050565b634e487b7160e01b600052604160045260246000fd5b604051606081016001600160401b03811182821017156128775761287761283f565b60405290565b604080519081016001600160401b03811182821017156128775761287761283f565b604051601f8201601f191681016001600160401b03811182821017156128c7576128c761283f565b604052919050565b60006001600160401b038211156128e8576128e861283f565b50601f01601f191660200190565b60006001600160401b03808411156129105761291061283f565b8360051b602061292181830161289f565b86815291850191818101903684111561293957600080fd5b865b848110156129ff578035868111156129535760008081fd5b880160603682900312156129675760008081fd5b61296f612855565b61297882612459565b8152612985868301612504565b868201526040808301358981111561299d5760008081fd5b929092019136601f8401126129b25760008081fd5b82356129c56129c0826128cf565b61289f565b81815236898387010111156129da5760008081fd5b818986018a83013760009181018901919091529082015284525091830191830161293b565b50979650505050505050565b60008085851115612a1b57600080fd5b83861115612a2857600080fd5b5050820193919092039150565b60008451612a47818460208901612196565b8201838582376000930192835250909392505050565b81835281816020850137506000828201602090810191909152601f909101601f19169091010190565b602081526000610d06602083018486612a5d565b634e487b7160e01b600052603260045260246000fd5b6000823561013e19833603018112612ac757600080fd5b9190910192915050565b6000808335601e19843603018112612ae857600080fd5b8301803591506001600160401b03821115612b0257600080fd5b60200191503681900382131561237257600080fd5b6001600160401b03811681146111f157600080fd5b63ffffffff612b3a89612459565b1681526020880135602082015260006040890135612b5781612b17565b6001600160401b03811660408401525087606083015260e06080830152612b8260e083018789612a5d565b6001600160a01b03861660a084015282810360c0840152612ba4818587612a5d565b9a9950505050505050505050565b600060208284031215612bc457600080fd5b81516001600160401b03811115612bda57600080fd5b8201601f81018413612beb57600080fd5b8051612bf96129c0826128cf565b818152856020838501011115612c0e57600080fd5b611776826020830160208601612196565b600060208284031215612c3157600080fd5b8135610b5581612b17565b60018060a01b038516815283602082015261ffff83166040820152608060608201526000610bcf60808301846121ba565b604081526000612c8060408301856121ba565b828103602084015261177681856121ba565b600060208284031215612ca457600080fd5b8151610b558161248e565b6040815263ffffffff8351166040820152602083015160608201526000604084015160a06080840152612ce560e08401826121ba565b90506060850151603f198483030160a0850152612d0282826121ba565b60809690960151151560c08501525050506001600160a01b039190911660209091015290565b600060408284031215612d3a57600080fd5b612d4261287d565b9050815181526020820151602082015292915050565b600060408284031215612d6a57600080fd5b610b558383612d28565b601f821115611237576000816000526020600020601f850160051c81016020861015612d9d5750805b601f850160051c820191505b81811015612dbc57828155600101612da9565b505050505050565b81516001600160401b03811115612ddd57612ddd61283f565b612df181612deb84546127d5565b84612d74565b602080601f831160018114612e265760008415612e0e5750858301515b600019600386901b1c1916600185901b178555612dbc565b600085815260208120601f198616915b82811015612e5557888601518255948401946001909101908401612e36565b5085821015612e735787850151600019600388901b60f8161c191681555b5050505050600190811b01905550565b600060208083018184528085518083526040925060408601915060408160051b87010184880160005b83811015612f0057888303603f190185528151805163ffffffff1684528781015161ffff16888501528601516060878501819052612eec818601836121ba565b968901969450505090860190600101612eac565b509098975050505050505050565b600060408284031215612f2057600080fd5b612f2861287d565b82358152602083013560208201528091505092915050565b634e487b7160e01b600052601160045260246000fd5b600082612f7357634e487b7160e01b600052601260045260246000fd5b500490565b80820281158282048414176108df576108df612f40565b803560208310156108df57600019602084900360031b1b1692915050565b6001600160c01b03198135818116916008851015612fd55780818660080360031b1b83161692505b505092915050565b6001600160401b0360c01b8560c01b16815263ffffffff60e01b8460e01b16600882015282600c8201526000825161301c81602c850160208701612196565b91909101602c0195945050505050565b808201808211156108df576108df612f40565b8481526001600160401b0360c01b8460c01b16602082015282602882015260008251613072816048850160208701612196565b9190910160480195945050505050565b60006080828403121561309457600080fd5b61309c612855565b8251815260208301516130ae81612b17565b60208201526130c08460408501612d28565b6040820152939250505056fea26469706673582212208a0cad22a080c669821065136e7423694e044c4f3fbbdcf22f6339f9884f6a5b64736f6c63430008160033",
  "linkReferences": {},
  "deployedLinkReferences": {}
}