{
  "_format": "hh-sol-artifact-1",
  "contractName": "DecomToken",
  "sourceName": "contracts/Hackathon/DecomToken.sol",
  "abi": [
    {
      "inputs": [
        {
          "internalType": "address",
          "name": "_lzEndpoint",
          "type": "address"
        },
        {
          "internalType": "address",
          "name": "_delegate",
          "type": "address"
        },
        {
          "internalType": "address",
          "name": "_asset",
          "type": "address"
        }
      ],
      "stateMutability": "nonpayable",
      "type": "constructor"
    },
    {
      "inputs": [
        {
          "internalType": "address",
          "name": "spender",
          "type": "address"
        },
        {
          "internalType": "uint256",
          "name": "allowance",
          "type": "uint256"
        },
        {
          "internalType": "uint256",
          "name": "needed",
          "type": "uint256"
        }
      ],
      "name": "ERC20InsufficientAllowance",
      "type": "error"
    },
    {
      "inputs": [
        {
          "internalType": "address",
          "name": "sender",
          "type": "address"
        },
        {
          "internalType": "uint256",
          "name": "balance",
          "type": "uint256"
        },
        {
          "internalType": "uint256",
          "name": "needed",
          "type": "uint256"
        }
      ],
      "name": "ERC20InsufficientBalance",
      "type": "error"
    },
    {
      "inputs": [
        {
          "internalType": "address",
          "name": "approver",
          "type": "address"
        }
      ],
      "name": "ERC20InvalidApprover",
      "type": "error"
    },
    {
      "inputs": [
        {
          "internalType": "address",
          "name": "receiver",
          "type": "address"
        }
      ],
      "name": "ERC20InvalidReceiver",
      "type": "error"
    },
    {
      "inputs": [
        {
          "internalType": "address",
          "name": "sender",
          "type": "address"
        }
      ],
      "name": "ERC20InvalidSender",
      "type": "error"
    },
    {
      "inputs": [
        {
          "internalType": "address",
          "name": "spender",
          "type": "address"
        }
      ],
      "name": "ERC20InvalidSpender",
      "type": "error"
    },
    {
      "inputs": [],
      "name": "InvalidDelegate",
      "type": "error"
    },
    {
      "inputs": [],
      "name": "InvalidEndpointCall",
      "type": "error"
    },
    {
      "inputs": [],
      "name": "InvalidLocalDecimals",
      "type": "error"
    },
    {
      "inputs": [
        {
          "internalType": "bytes",
          "name": "options",
          "type": "bytes"
        }
      ],
      "name": "InvalidOptions",
      "type": "error"
    },
    {
      "inputs": [],
      "name": "LzTokenUnavailable",
      "type": "error"
    },
    {
      "inputs": [
        {
          "internalType": "uint32",
          "name": "eid",
          "type": "uint32"
        }
      ],
      "name": "NoPeer",
      "type": "error"
    },
    {
      "inputs": [
        {
          "internalType": "uint256",
          "name": "msgValue",
          "type": "uint256"
        }
      ],
      "name": "NotEnoughNative",
      "type": "error"
    },
    {
      "inputs": [
        {
          "internalType": "address",
          "name": "addr",
          "type": "address"
        }
      ],
      "name": "OnlyEndpoint",
      "type": "error"
    },
    {
      "inputs": [
        {
          "internalType": "uint32",
          "name": "eid",
          "type": "uint32"
        },
        {
          "internalType": "bytes32",
          "name": "sender",
          "type": "bytes32"
        }
      ],
      "name": "OnlyPeer",
      "type": "error"
    },
    {
      "inputs": [],
      "name": "OnlySelf",
      "type": "error"
    },
    {
      "inputs": [
        {
          "internalType": "address",
          "name": "owner",
          "type": "address"
        }
      ],
      "name": "OwnableInvalidOwner",
      "type": "error"
    },
    {
      "inputs": [
        {
          "internalType": "address",
          "name": "account",
          "type": "address"
        }
      ],
      "name": "OwnableUnauthorizedAccount",
      "type": "error"
    },
    {
      "inputs": [
        {
          "internalType": "address",
          "name": "token",
          "type": "address"
        }
      ],
      "name": "SafeERC20FailedOperation",
      "type": "error"
    },
    {
      "inputs": [
        {
          "internalType": "bytes",
          "name": "result",
          "type": "bytes"
        }
      ],
      "name": "SimulationResult",
      "type": "error"
    },
    {
      "inputs": [
        {
          "internalType": "uint256",
          "name": "amountLD",
          "type": "uint256"
        },
        {
          "internalType": "uint256",
          "name": "minAmountLD",
          "type": "uint256"
        }
      ],
      "name": "SlippageExceeded",
      "type": "error"
    },
    {
      "anonymous": false,
      "inputs": [
        {
          "indexed": true,
          "internalType": "address",
          "name": "owner",
          "type": "address"
        },
        {
          "indexed": true,
          "internalType": "address",
          "name": "spender",
          "type": "address"
        },
        {
          "indexed": false,
          "internalType": "uint256",
          "name": "value",
          "type": "uint256"
        }
      ],
      "name": "Approval",
      "type": "event"
    },
    {
      "anonymous": false,
      "inputs": [
        {
          "components": [
            {
              "internalType": "uint32",
              "name": "eid",
              "type": "uint32"
            },
            {
              "internalType": "uint16",
              "name": "msgType",
              "type": "uint16"
            },
            {
              "internalType": "bytes",
              "name": "options",
              "type": "bytes"
            }
          ],
          "indexed": false,
          "internalType": "struct EnforcedOptionParam[]",
          "name": "_enforcedOptions",
          "type": "tuple[]"
        }
      ],
      "name": "EnforcedOptionSet",
      "type": "event"
    },
    {
      "anonymous": false,
      "inputs": [
        {
          "indexed": false,
          "internalType": "address",
          "name": "inspector",
          "type": "address"
        }
      ],
      "name": "MsgInspectorSet",
      "type": "event"
    },
    {
      "anonymous": false,
      "inputs": [
        {
          "indexed": true,
          "internalType": "bytes32",
          "name": "guid",
          "type": "bytes32"
        },
        {
          "indexed": false,
          "internalType": "uint32",
          "name": "srcEid",
          "type": "uint32"
        },
        {
          "indexed": true,
          "internalType": "address",
          "name": "toAddress",
          "type": "address"
        },
        {
          "indexed": false,
          "internalType": "uint256",
          "name": "amountReceivedLD",
          "type": "uint256"
        }
      ],
      "name": "OFTReceived",
      "type": "event"
    },
    {
      "anonymous": false,
      "inputs": [
        {
          "indexed": true,
          "internalType": "bytes32",
          "name": "guid",
          "type": "bytes32"
        },
        {
          "indexed": false,
          "internalType": "uint32",
          "name": "dstEid",
          "type": "uint32"
        },
        {
          "indexed": true,
          "internalType": "address",
          "name": "fromAddress",
          "type": "address"
        },
        {
          "indexed": false,
          "internalType": "uint256",
          "name": "amountSentLD",
          "type": "uint256"
        },
        {
          "indexed": false,
          "internalType": "uint256",
          "name": "amountReceivedLD",
          "type": "uint256"
        }
      ],
      "name": "OFTSent",
      "type": "event"
    },
    {
      "anonymous": false,
      "inputs": [
        {
          "indexed": true,
          "internalType": "address",
          "name": "previousOwner",
          "type": "address"
        },
        {
          "indexed": true,
          "internalType": "address",
          "name": "newOwner",
          "type": "address"
        }
      ],
      "name": "OwnershipTransferStarted",
      "type": "event"
    },
    {
      "anonymous": false,
      "inputs": [
        {
          "indexed": true,
          "internalType": "address",
          "name": "previousOwner",
          "type": "address"
        },
        {
          "indexed": true,
          "internalType": "address",
          "name": "newOwner",
          "type": "address"
        }
      ],
      "name": "OwnershipTransferred",
      "type": "event"
    },
    {
      "anonymous": false,
      "inputs": [
        {
          "indexed": false,
          "internalType": "uint32",
          "name": "eid",
          "type": "uint32"
        },
        {
          "indexed": false,
          "internalType": "bytes32",
          "name": "peer",
          "type": "bytes32"
        }
      ],
      "name": "PeerSet",
      "type": "event"
    },
    {
      "anonymous": false,
      "inputs": [
        {
          "indexed": false,
          "internalType": "address",
          "name": "preCrimeAddress",
          "type": "address"
        }
      ],
      "name": "PreCrimeSet",
      "type": "event"
    },
    {
      "anonymous": false,
      "inputs": [
        {
          "indexed": true,
          "internalType": "address",
          "name": "from",
          "type": "address"
        },
        {
          "indexed": true,
          "internalType": "address",
          "name": "to",
          "type": "address"
        },
        {
          "indexed": false,
          "internalType": "uint256",
          "name": "value",
          "type": "uint256"
        }
      ],
      "name": "Transfer",
      "type": "event"
    },
    {
      "anonymous": false,
      "inputs": [
        {
          "indexed": true,
          "internalType": "address",
          "name": "from",
          "type": "address"
        },
        {
          "indexed": true,
          "internalType": "address",
          "name": "to",
          "type": "address"
        },
        {
          "indexed": false,
          "internalType": "uint256",
          "name": "value",
          "type": "uint256"
        }
      ],
      "name": "TransferShares",
      "type": "event"
    },
    {
      "inputs": [],
      "name": "PRECISION",
      "outputs": [
        {
          "internalType": "uint256",
          "name": "",
          "type": "uint256"
        }
      ],
      "stateMutability": "view",
      "type": "function"
    },
    {
      "inputs": [],
      "name": "SEND",
      "outputs": [
        {
          "internalType": "uint16",
          "name": "",
          "type": "uint16"
        }
      ],
      "stateMutability": "view",
      "type": "function"
    },
    {
      "inputs": [],
      "name": "SEND_AND_CALL",
      "outputs": [
        {
          "internalType": "uint16",
          "name": "",
          "type": "uint16"
        }
      ],
      "stateMutability": "view",
      "type": "function"
    },
    {
      "inputs": [],
      "name": "acceptOwnership",
      "outputs": [],
      "stateMutability": "nonpayable",
      "type": "function"
    },
    {
      "inputs": [
        {
          "components": [
            {
              "internalType": "uint32",
              "name": "srcEid",
              "type": "uint32"
            },
            {
              "internalType": "bytes32",
              "name": "sender",
              "type": "bytes32"
            },
            {
              "internalType": "uint64",
              "name": "nonce",
              "type": "uint64"
            }
          ],
          "internalType": "struct Origin",
          "name": "origin",
          "type": "tuple"
        }
      ],
      "name": "allowInitializePath",
      "outputs": [
        {
          "internalType": "bool",
          "name": "",
          "type": "bool"
        }
      ],
      "stateMutability": "view",
      "type": "function"
    },
    {
      "inputs": [
        {
          "internalType": "address",
          "name": "owner",
          "type": "address"
        },
        {
          "internalType": "address",
          "name": "spender",
          "type": "address"
        }
      ],
      "name": "allowance",
      "outputs": [
        {
          "internalType": "uint256",
          "name": "",
          "type": "uint256"
        }
      ],
      "stateMutability": "view",
      "type": "function"
    },
    {
      "inputs": [],
      "name": "approvalRequired",
      "outputs": [
        {
          "internalType": "bool",
          "name": "",
          "type": "bool"
        }
      ],
      "stateMutability": "pure",
      "type": "function"
    },
    {
      "inputs": [
        {
          "internalType": "address",
          "name": "spender",
          "type": "address"
        },
        {
          "internalType": "uint256",
          "name": "value",
          "type": "uint256"
        }
      ],
      "name": "approve",
      "outputs": [
        {
          "internalType": "bool",
          "name": "",
          "type": "bool"
        }
      ],
      "stateMutability": "nonpayable",
      "type": "function"
    },
    {
      "inputs": [
        {
          "internalType": "address",
          "name": "spender",
          "type": "address"
        },
        {
          "internalType": "uint256",
          "name": "value",
          "type": "uint256"
        }
      ],
      "name": "approveShares",
      "outputs": [
        {
          "internalType": "bool",
          "name": "",
          "type": "bool"
        }
      ],
      "stateMutability": "nonpayable",
      "type": "function"
    },
    {
      "inputs": [],
      "name": "asset",
      "outputs": [
        {
          "internalType": "address",
          "name": "",
          "type": "address"
        }
      ],
      "stateMutability": "view",
      "type": "function"
    },
    {
      "inputs": [
        {
          "internalType": "uint256",
          "name": "amount",
          "type": "uint256"
        }
      ],
      "name": "assetsToShares",
      "outputs": [
        {
          "internalType": "uint256",
          "name": "",
          "type": "uint256"
        }
      ],
      "stateMutability": "view",
      "type": "function"
    },
    {
      "inputs": [
        {
          "internalType": "address",
          "name": "account",
          "type": "address"
        }
      ],
      "name": "balanceOf",
      "outputs": [
        {
          "internalType": "uint256",
          "name": "",
          "type": "uint256"
        }
      ],
      "stateMutability": "view",
      "type": "function"
    },
    {
      "inputs": [
        {
          "internalType": "address",
          "name": "from",
          "type": "address"
        },
        {
          "internalType": "uint256",
          "name": "sharesAmount",
          "type": "uint256"
        }
      ],
      "name": "burnShares",
      "outputs": [],
      "stateMutability": "nonpayable",
      "type": "function"
    },
    {
      "inputs": [
        {
          "internalType": "uint32",
          "name": "_eid",
          "type": "uint32"
        },
        {
          "internalType": "uint16",
          "name": "_msgType",
          "type": "uint16"
        },
        {
          "internalType": "bytes",
          "name": "_extraOptions",
          "type": "bytes"
        }
      ],
      "name": "combineOptions",
      "outputs": [
        {
          "internalType": "bytes",
          "name": "",
          "type": "bytes"
        }
      ],
      "stateMutability": "view",
      "type": "function"
    },
    {
      "inputs": [],
      "name": "decimalConversionRate",
      "outputs": [
        {
          "internalType": "uint256",
          "name": "",
          "type": "uint256"
        }
      ],
      "stateMutability": "view",
      "type": "function"
    },
    {
      "inputs": [],
      "name": "decimals",
      "outputs": [
        {
          "internalType": "uint8",
          "name": "",
          "type": "uint8"
        }
      ],
      "stateMutability": "view",
      "type": "function"
    },
    {
      "inputs": [
        {
          "internalType": "uint256",
          "name": "_asset",
          "type": "uint256"
        }
      ],
      "name": "deposit",
      "outputs": [
        {
          "internalType": "uint256",
          "name": "",
          "type": "uint256"
        }
      ],
      "stateMutability": "nonpayable",
      "type": "function"
    },
    {
      "inputs": [],
      "name": "endpoint",
      "outputs": [
        {
          "internalType": "contract ILayerZeroEndpointV2",
          "name": "",
          "type": "address"
        }
      ],
      "stateMutability": "view",
      "type": "function"
    },
    {
      "inputs": [
        {
          "internalType": "uint32",
          "name": "eid",
          "type": "uint32"
        },
        {
          "internalType": "uint16",
          "name": "msgType",
          "type": "uint16"
        }
      ],
      "name": "enforcedOptions",
      "outputs": [
        {
          "internalType": "bytes",
          "name": "enforcedOption",
          "type": "bytes"
        }
      ],
      "stateMutability": "view",
      "type": "function"
    },
    {
      "inputs": [],
      "name": "exchangeRate",
      "outputs": [
        {
          "internalType": "uint256",
          "name": "",
          "type": "uint256"
        }
      ],
      "stateMutability": "view",
      "type": "function"
    },
    {
      "inputs": [
        {
          "components": [
            {
              "internalType": "uint32",
              "name": "srcEid",
              "type": "uint32"
            },
            {
              "internalType": "bytes32",
              "name": "sender",
              "type": "bytes32"
            },
            {
              "internalType": "uint64",
              "name": "nonce",
              "type": "uint64"
            }
          ],
          "internalType": "struct Origin",
          "name": "",
          "type": "tuple"
        },
        {
          "internalType": "bytes",
          "name": "",
          "type": "bytes"
        },
        {
          "internalType": "address",
          "name": "_sender",
          "type": "address"
        }
      ],
      "name": "isComposeMsgSender",
      "outputs": [
        {
          "internalType": "bool",
          "name": "",
          "type": "bool"
        }
      ],
      "stateMutability": "view",
      "type": "function"
    },
    {
      "inputs": [
        {
          "internalType": "uint32",
          "name": "_eid",
          "type": "uint32"
        },
        {
          "internalType": "bytes32",
          "name": "_peer",
          "type": "bytes32"
        }
      ],
      "name": "isPeer",
      "outputs": [
        {
          "internalType": "bool",
          "name": "",
          "type": "bool"
        }
      ],
      "stateMutability": "view",
      "type": "function"
    },
    {
      "inputs": [],
      "name": "lastUpdate",
      "outputs": [
        {
          "internalType": "uint256",
          "name": "",
          "type": "uint256"
        }
      ],
      "stateMutability": "view",
      "type": "function"
    },
    {
      "inputs": [
        {
          "components": [
            {
              "internalType": "uint32",
              "name": "srcEid",
              "type": "uint32"
            },
            {
              "internalType": "bytes32",
              "name": "sender",
              "type": "bytes32"
            },
            {
              "internalType": "uint64",
              "name": "nonce",
              "type": "uint64"
            }
          ],
          "internalType": "struct Origin",
          "name": "_origin",
          "type": "tuple"
        },
        {
          "internalType": "bytes32",
          "name": "_guid",
          "type": "bytes32"
        },
        {
          "internalType": "bytes",
          "name": "_message",
          "type": "bytes"
        },
        {
          "internalType": "address",
          "name": "_executor",
          "type": "address"
        },
        {
          "internalType": "bytes",
          "name": "_extraData",
          "type": "bytes"
        }
      ],
      "name": "lzReceive",
      "outputs": [],
      "stateMutability": "payable",
      "type": "function"
    },
    {
      "inputs": [
        {
          "components": [
            {
              "components": [
                {
                  "internalType": "uint32",
                  "name": "srcEid",
                  "type": "uint32"
                },
                {
                  "internalType": "bytes32",
                  "name": "sender",
                  "type": "bytes32"
                },
                {
                  "internalType": "uint64",
                  "name": "nonce",
                  "type": "uint64"
                }
              ],
              "internalType": "struct Origin",
              "name": "origin",
              "type": "tuple"
            },
            {
              "internalType": "uint32",
              "name": "dstEid",
              "type": "uint32"
            },
            {
              "internalType": "address",
              "name": "receiver",
              "type": "address"
            },
            {
              "internalType": "bytes32",
              "name": "guid",
              "type": "bytes32"
            },
            {
              "internalType": "uint256",
              "name": "value",
              "type": "uint256"
            },
            {
              "internalType": "address",
              "name": "executor",
              "type": "address"
            },
            {
              "internalType": "bytes",
              "name": "message",
              "type": "bytes"
            },
            {
              "internalType": "bytes",
              "name": "extraData",
              "type": "bytes"
            }
          ],
          "internalType": "struct InboundPacket[]",
          "name": "_packets",
          "type": "tuple[]"
        }
      ],
      "name": "lzReceiveAndRevert",
      "outputs": [],
      "stateMutability": "payable",
      "type": "function"
    },
    {
      "inputs": [
        {
          "components": [
            {
              "internalType": "uint32",
              "name": "srcEid",
              "type": "uint32"
            },
            {
              "internalType": "bytes32",
              "name": "sender",
              "type": "bytes32"
            },
            {
              "internalType": "uint64",
              "name": "nonce",
              "type": "uint64"
            }
          ],
          "internalType": "struct Origin",
          "name": "_origin",
          "type": "tuple"
        },
        {
          "internalType": "bytes32",
          "name": "_guid",
          "type": "bytes32"
        },
        {
          "internalType": "bytes",
          "name": "_message",
          "type": "bytes"
        },
        {
          "internalType": "address",
          "name": "_executor",
          "type": "address"
        },
        {
          "internalType": "bytes",
          "name": "_extraData",
          "type": "bytes"
        }
      ],
      "name": "lzReceiveSimulate",
      "outputs": [],
      "stateMutability": "payable",
      "type": "function"
    },
    {
      "inputs": [
        {
          "internalType": "address",
          "name": "to",
          "type": "address"
        },
        {
          "internalType": "uint256",
          "name": "sharesAmount",
          "type": "uint256"
        }
      ],
      "name": "mintShares",
      "outputs": [],
      "stateMutability": "nonpayable",
      "type": "function"
    },
    {
      "inputs": [],
      "name": "msgInspector",
      "outputs": [
        {
          "internalType": "address",
          "name": "",
          "type": "address"
        }
      ],
      "stateMutability": "view",
      "type": "function"
    },
    {
      "inputs": [],
      "name": "name",
      "outputs": [
        {
          "internalType": "string",
          "name": "",
          "type": "string"
        }
      ],
      "stateMutability": "view",
      "type": "function"
    },
    {
      "inputs": [
        {
          "internalType": "uint32",
          "name": "",
          "type": "uint32"
        },
        {
          "internalType": "bytes32",
          "name": "",
          "type": "bytes32"
        }
      ],
      "name": "nextNonce",
      "outputs": [
        {
          "internalType": "uint64",
          "name": "nonce",
          "type": "uint64"
        }
      ],
      "stateMutability": "view",
      "type": "function"
    },
    {
      "inputs": [],
      "name": "oApp",
      "outputs": [
        {
          "internalType": "address",
          "name": "",
          "type": "address"
        }
      ],
      "stateMutability": "view",
      "type": "function"
    },
    {
      "inputs": [],
      "name": "oAppVersion",
      "outputs": [
        {
          "internalType": "uint64",
          "name": "senderVersion",
          "type": "uint64"
        },
        {
          "internalType": "uint64",
          "name": "receiverVersion",
          "type": "uint64"
        }
      ],
      "stateMutability": "pure",
      "type": "function"
    },
    {
      "inputs": [],
      "name": "oftRouter",
      "outputs": [
        {
          "internalType": "address",
          "name": "",
          "type": "address"
        }
      ],
      "stateMutability": "view",
      "type": "function"
    },
    {
      "inputs": [],
      "name": "oftVersion",
      "outputs": [
        {
          "internalType": "bytes4",
          "name": "interfaceId",
          "type": "bytes4"
        },
        {
          "internalType": "uint64",
          "name": "version",
          "type": "uint64"
        }
      ],
      "stateMutability": "pure",
      "type": "function"
    },
    {
      "inputs": [],
      "name": "owner",
      "outputs": [
        {
          "internalType": "address",
          "name": "",
          "type": "address"
        }
      ],
      "stateMutability": "view",
      "type": "function"
    },
    {
      "inputs": [
        {
          "internalType": "uint32",
          "name": "eid",
          "type": "uint32"
        }
      ],
      "name": "peers",
      "outputs": [
        {
          "internalType": "bytes32",
          "name": "peer",
          "type": "bytes32"
        }
      ],
      "stateMutability": "view",
      "type": "function"
    },
    {
      "inputs": [],
      "name": "pendingOwner",
      "outputs": [
        {
          "internalType": "address",
          "name": "",
          "type": "address"
        }
      ],
      "stateMutability": "view",
      "type": "function"
    },
    {
      "inputs": [],
      "name": "preCrime",
      "outputs": [
        {
          "internalType": "address",
          "name": "",
          "type": "address"
        }
      ],
      "stateMutability": "view",
      "type": "function"
    },
    {
      "inputs": [],
      "name": "pricePerShare",
      "outputs": [
        {
          "internalType": "uint256",
          "name": "",
          "type": "uint256"
        }
      ],
      "stateMutability": "view",
      "type": "function"
    },
    {
      "inputs": [
        {
          "components": [
            {
              "internalType": "uint32",
              "name": "dstEid",
              "type": "uint32"
            },
            {
              "internalType": "bytes32",
              "name": "to",
              "type": "bytes32"
            },
            {
              "internalType": "uint256",
              "name": "amountLD",
              "type": "uint256"
            },
            {
              "internalType": "uint256",
              "name": "minAmountLD",
              "type": "uint256"
            },
            {
              "internalType": "bytes",
              "name": "extraOptions",
              "type": "bytes"
            },
            {
              "internalType": "bytes",
              "name": "composeMsg",
              "type": "bytes"
            },
            {
              "internalType": "bytes",
              "name": "oftCmd",
              "type": "bytes"
            }
          ],
          "internalType": "struct SendParam",
          "name": "_sendParam",
          "type": "tuple"
        }
      ],
      "name": "quoteOFT",
      "outputs": [
        {
          "components": [
            {
              "internalType": "uint256",
              "name": "minAmountLD",
              "type": "uint256"
            },
            {
              "internalType": "uint256",
              "name": "maxAmountLD",
              "type": "uint256"
            }
          ],
          "internalType": "struct OFTLimit",
          "name": "oftLimit",
          "type": "tuple"
        },
        {
          "components": [
            {
              "internalType": "int256",
              "name": "feeAmountLD",
              "type": "int256"
            },
            {
              "internalType": "string",
              "name": "description",
              "type": "string"
            }
          ],
          "internalType": "struct OFTFeeDetail[]",
          "name": "oftFeeDetails",
          "type": "tuple[]"
        },
        {
          "components": [
            {
              "internalType": "uint256",
              "name": "amountSentLD",
              "type": "uint256"
            },
            {
              "internalType": "uint256",
              "name": "amountReceivedLD",
              "type": "uint256"
            }
          ],
          "internalType": "struct OFTReceipt",
          "name": "oftReceipt",
          "type": "tuple"
        }
      ],
      "stateMutability": "view",
      "type": "function"
    },
    {
      "inputs": [
        {
          "components": [
            {
              "internalType": "uint32",
              "name": "dstEid",
              "type": "uint32"
            },
            {
              "internalType": "bytes32",
              "name": "to",
              "type": "bytes32"
            },
            {
              "internalType": "uint256",
              "name": "amountLD",
              "type": "uint256"
            },
            {
              "internalType": "uint256",
              "name": "minAmountLD",
              "type": "uint256"
            },
            {
              "internalType": "bytes",
              "name": "extraOptions",
              "type": "bytes"
            },
            {
              "internalType": "bytes",
              "name": "composeMsg",
              "type": "bytes"
            },
            {
              "internalType": "bytes",
              "name": "oftCmd",
              "type": "bytes"
            }
          ],
          "internalType": "struct SendParam",
          "name": "_sendParam",
          "type": "tuple"
        },
        {
          "internalType": "bool",
          "name": "_payInLzToken",
          "type": "bool"
        }
      ],
      "name": "quoteSend",
      "outputs": [
        {
          "components": [
            {
              "internalType": "uint256",
              "name": "nativeFee",
              "type": "uint256"
            },
            {
              "internalType": "uint256",
              "name": "lzTokenFee",
              "type": "uint256"
            }
          ],
          "internalType": "struct MessagingFee",
          "name": "msgFee",
          "type": "tuple"
        }
      ],
      "stateMutability": "view",
      "type": "function"
    },
    {
      "inputs": [],
      "name": "renounceOwnership",
      "outputs": [],
      "stateMutability": "nonpayable",
      "type": "function"
    },
    {
      "inputs": [
        {
          "components": [
            {
              "internalType": "uint32",
              "name": "dstEid",
              "type": "uint32"
            },
            {
              "internalType": "bytes32",
              "name": "to",
              "type": "bytes32"
            },
            {
              "internalType": "uint256",
              "name": "amountLD",
              "type": "uint256"
            },
            {
              "internalType": "uint256",
              "name": "minAmountLD",
              "type": "uint256"
            },
            {
              "internalType": "bytes",
              "name": "extraOptions",
              "type": "bytes"
            },
            {
              "internalType": "bytes",
              "name": "composeMsg",
              "type": "bytes"
            },
            {
              "internalType": "bytes",
              "name": "oftCmd",
              "type": "bytes"
            }
          ],
          "internalType": "struct SendParam",
          "name": "_sendParam",
          "type": "tuple"
        },
        {
          "components": [
            {
              "internalType": "uint256",
              "name": "nativeFee",
              "type": "uint256"
            },
            {
              "internalType": "uint256",
              "name": "lzTokenFee",
              "type": "uint256"
            }
          ],
          "internalType": "struct MessagingFee",
          "name": "_fee",
          "type": "tuple"
        },
        {
          "internalType": "address",
          "name": "_refundAddress",
          "type": "address"
        }
      ],
      "name": "send",
      "outputs": [
        {
          "components": [
            {
              "internalType": "bytes32",
              "name": "guid",
              "type": "bytes32"
            },
            {
              "internalType": "uint64",
              "name": "nonce",
              "type": "uint64"
            },
            {
              "components": [
                {
                  "internalType": "uint256",
                  "name": "nativeFee",
                  "type": "uint256"
                },
                {
                  "internalType": "uint256",
                  "name": "lzTokenFee",
                  "type": "uint256"
                }
              ],
              "internalType": "struct MessagingFee",
              "name": "fee",
              "type": "tuple"
            }
          ],
          "internalType": "struct MessagingReceipt",
          "name": "msgReceipt",
          "type": "tuple"
        },
        {
          "components": [
            {
              "internalType": "uint256",
              "name": "amountSentLD",
              "type": "uint256"
            },
            {
              "internalType": "uint256",
              "name": "amountReceivedLD",
              "type": "uint256"
            }
          ],
          "internalType": "struct OFTReceipt",
          "name": "oftReceipt",
          "type": "tuple"
        }
      ],
      "stateMutability": "payable",
      "type": "function"
    },
    {
      "inputs": [
        {
          "internalType": "address",
          "name": "_delegate",
          "type": "address"
        }
      ],
      "name": "setDelegate",
      "outputs": [],
      "stateMutability": "nonpayable",
      "type": "function"
    },
    {
      "inputs": [
        {
          "components": [
            {
              "internalType": "uint32",
              "name": "eid",
              "type": "uint32"
            },
            {
              "internalType": "uint16",
              "name": "msgType",
              "type": "uint16"
            },
            {
              "internalType": "bytes",
              "name": "options",
              "type": "bytes"
            }
          ],
          "internalType": "struct EnforcedOptionParam[]",
          "name": "_enforcedOptions",
          "type": "tuple[]"
        }
      ],
      "name": "setEnforcedOptions",
      "outputs": [],
      "stateMutability": "nonpayable",
      "type": "function"
    },
    {
      "inputs": [
        {
          "internalType": "uint256",
          "name": "_exchangeRate",
          "type": "uint256"
        }
      ],
      "name": "setExchangeRate",
      "outputs": [],
      "stateMutability": "nonpayable",
      "type": "function"
    },
    {
      "inputs": [
        {
          "internalType": "address",
          "name": "_msgInspector",
          "type": "address"
        }
      ],
      "name": "setMsgInspector",
      "outputs": [],
      "stateMutability": "nonpayable",
      "type": "function"
    },
    {
      "inputs": [
        {
          "internalType": "address",
          "name": "_oftRouter",
          "type": "address"
        }
      ],
      "name": "setOftRouter",
      "outputs": [],
      "stateMutability": "nonpayable",
      "type": "function"
    },
    {
      "inputs": [
        {
          "internalType": "uint32",
          "name": "_eid",
          "type": "uint32"
        },
        {
          "internalType": "bytes32",
          "name": "_peer",
          "type": "bytes32"
        }
      ],
      "name": "setPeer",
      "outputs": [],
      "stateMutability": "nonpayable",
      "type": "function"
    },
    {
      "inputs": [
        {
          "internalType": "address",
          "name": "_preCrime",
          "type": "address"
        }
      ],
      "name": "setPreCrime",
      "outputs": [],
      "stateMutability": "nonpayable",
      "type": "function"
    },
    {
      "inputs": [],
      "name": "sharedDecimals",
      "outputs": [
        {
          "internalType": "uint8",
          "name": "",
          "type": "uint8"
        }
      ],
      "stateMutability": "view",
      "type": "function"
    },
    {
      "inputs": [
        {
          "internalType": "address",
          "name": "account",
          "type": "address"
        }
      ],
      "name": "sharesOf",
      "outputs": [
        {
          "internalType": "uint256",
          "name": "",
          "type": "uint256"
        }
      ],
      "stateMutability": "view",
      "type": "function"
    },
    {
      "inputs": [
        {
          "internalType": "uint256",
          "name": "amount",
          "type": "uint256"
        }
      ],
      "name": "sharesToAssets",
      "outputs": [
        {
          "internalType": "uint256",
          "name": "",
          "type": "uint256"
        }
      ],
      "stateMutability": "view",
      "type": "function"
    },
    {
      "inputs": [],
      "name": "symbol",
      "outputs": [
        {
          "internalType": "string",
          "name": "",
          "type": "string"
        }
      ],
      "stateMutability": "view",
      "type": "function"
    },
    {
      "inputs": [],
      "name": "token",
      "outputs": [
        {
          "internalType": "address",
          "name": "",
          "type": "address"
        }
      ],
      "stateMutability": "view",
      "type": "function"
    },
    {
      "inputs": [],
      "name": "totalShares",
      "outputs": [
        {
          "internalType": "uint256",
          "name": "",
          "type": "uint256"
        }
      ],
      "stateMutability": "view",
      "type": "function"
    },
    {
      "inputs": [],
      "name": "totalSupply",
      "outputs": [
        {
          "internalType": "uint256",
          "name": "",
          "type": "uint256"
        }
      ],
      "stateMutability": "view",
      "type": "function"
    },
    {
      "inputs": [
        {
          "internalType": "address",
          "name": "to",
          "type": "address"
        },
        {
          "internalType": "uint256",
          "name": "value",
          "type": "uint256"
        }
      ],
      "name": "transfer",
      "outputs": [
        {
          "internalType": "bool",
          "name": "",
          "type": "bool"
        }
      ],
      "stateMutability": "nonpayable",
      "type": "function"
    },
    {
      "inputs": [
        {
          "internalType": "address",
          "name": "from",
          "type": "address"
        },
        {
          "internalType": "address",
          "name": "to",
          "type": "address"
        },
        {
          "internalType": "uint256",
          "name": "value",
          "type": "uint256"
        }
      ],
      "name": "transferFrom",
      "outputs": [
        {
          "internalType": "bool",
          "name": "",
          "type": "bool"
        }
      ],
      "stateMutability": "nonpayable",
      "type": "function"
    },
    {
      "inputs": [
        {
          "internalType": "address",
          "name": "newOwner",
          "type": "address"
        }
      ],
      "name": "transferOwnership",
      "outputs": [],
      "stateMutability": "nonpayable",
      "type": "function"
    },
    {
      "inputs": [
        {
          "internalType": "address",
          "name": "_recipient",
          "type": "address"
        },
        {
          "internalType": "uint256",
          "name": "_sharesAmount",
          "type": "uint256"
        }
      ],
      "name": "transferShares",
      "outputs": [
        {
          "internalType": "uint256",
          "name": "",
          "type": "uint256"
        }
      ],
      "stateMutability": "nonpayable",
      "type": "function"
    },
    {
      "inputs": [
        {
          "internalType": "address",
          "name": "_sender",
          "type": "address"
        },
        {
          "internalType": "address",
          "name": "_recipient",
          "type": "address"
        },
        {
          "internalType": "uint256",
          "name": "_sharesAmount",
          "type": "uint256"
        }
      ],
      "name": "transferSharesFrom",
      "outputs": [
        {
          "internalType": "uint256",
          "name": "",
          "type": "uint256"
        }
      ],
      "stateMutability": "nonpayable",
      "type": "function"
    }
  ],
  "bytecode": "0x60c0604052600a600f553480156200001657600080fd5b50604051620044b2380380620044b28339810160408190526200003991620006b8565b6040518060400160405280600b81526020016a2232b1b7b6902a37b5b2b760a91b815250604051806040016040528060048152602001631110d35560e21b8152508484670de0b6b3a7640000858585858583836200009c6200023260201b60201c565b8484818181818f6001600160a01b038116620000d357604051631e4fbdf760e01b8152600060048201526024015b60405180910390fd5b620000de8162000237565b506001600160a01b0380831660805281166200010d57604051632d618d8160e21b815260040160405180910390fd5b60805160405163ca5eb5e160e01b81526001600160a01b0383811660048301529091169063ca5eb5e190602401600060405180830381600087803b1580156200015557600080fd5b505af11580156200016a573d6000803e3d6000fd5b5050505050505050620001826200024560201b60201c565b60ff168360ff161015620001a9576040516301e9714b60e41b815260040160405180910390fd5b620001b660068462000718565b620001c390600a62000831565b60a0525060089150620001d990508382620008e8565b506009620001e88282620008e8565b5050600e80546001600160a01b0319166001600160a01b0388161790555062000223935030925068056bc75e2d6310000091506200024a9050565b50505050505050505062000a27565b601290565b620002428162000288565b50565b600690565b6001600160a01b038216620002765760405163ec442f0560e01b815260006004820152602401620000ca565b6200028460008383620002a3565b5050565b600a80546001600160a01b03191690556200024281620002fc565b6001600160a01b0383161580620002c157506001600160a01b038216155b15620002e457620002df838383620002d9816200034c565b62000370565b505050565b620002df8383620002f58462000509565b8462000370565b600080546001600160a01b038381166001600160a01b0319831681178455604051919092169283917f8be0079c531659141344cd1fd0a4f28419497f9722a3daafe3b4186f6b6457e09190a35050565b600c546000906200036a908390670de0b6b3a7640000600162000522565b92915050565b6001600160a01b0384166200039f578160116000828254620003939190620009b4565b909155506200042a9050565b6001600160a01b038416600090815260106020526040902054828110156200040b5784620003cd826200034c565b620003d8856200034c565b60405163391434e360e21b81526001600160a01b03909316600484015260248301919091526044820152606401620000ca565b6001600160a01b03851660009081526010602052604090209083900390555b6001600160a01b038316620004485760118054839003905562000467565b6001600160a01b03831660009081526010602052604090208054830190555b826001600160a01b0316846001600160a01b03167fddf252ad1be2c89b69c2b068fc378daa952ba7f163c4a11628f55a4df523b3ef83604051620004ad91815260200190565b60405180910390a3826001600160a01b0316846001600160a01b03167f9d9c909296d9c674451c0c24f02cb64981eb3b727f99865939192f880a755dcb84604051620004fb91815260200190565b60405180910390a350505050565b600c546000906200036a908390670de0b6b3a764000090845b60006200055862000533836200057a565b8015620005535750600084806200054e576200054e620009ca565b868809115b151590565b62000565868686620005ac565b620005719190620009b4565b95945050505050565b60006002826003811115620005935762000593620009e0565b6200059f9190620009f6565b60ff166001149050919050565b60008080620005bc86866200066b565b9150915081600003620005e657838181620005db57620005db620009ca565b049250505062000664565b818411620006005762000600600385150260111862000689565b6000848688096000868103871696879004966002600389028118808a02820302808a02820302808a02820302808a02820302808a02820302808a02909103029181900381900460010185841190960395909502919093039390930492909217029150505b9392505050565b60008060001983850993909202808410938190039390930393915050565b634e487b71600052806020526024601cfd5b80516001600160a01b0381168114620006b357600080fd5b919050565b600080600060608486031215620006ce57600080fd5b620006d9846200069b565b9250620006e9602085016200069b565b9150620006f9604085016200069b565b90509250925092565b634e487b7160e01b600052601160045260246000fd5b60ff82811682821603908111156200036a576200036a62000702565b600181815b808511156200077557816000190482111562000759576200075962000702565b808516156200076757918102915b93841c939080029062000739565b509250929050565b6000826200078e575060016200036a565b816200079d575060006200036a565b8160018114620007b65760028114620007c157620007e1565b60019150506200036a565b60ff841115620007d557620007d562000702565b50506001821b6200036a565b5060208310610133831016604e8410600b841016171562000806575081810a6200036a565b62000812838362000734565b806000190482111562000829576200082962000702565b029392505050565b60006200066460ff8416836200077d565b634e487b7160e01b600052604160045260246000fd5b600181811c908216806200086d57607f821691505b6020821081036200088e57634e487b7160e01b600052602260045260246000fd5b50919050565b601f821115620002df576000816000526020600020601f850160051c81016020861015620008bf5750805b601f850160051c820191505b81811015620008e057828155600101620008cb565b505050505050565b81516001600160401b0381111562000904576200090462000842565b6200091c8162000915845462000858565b8462000894565b602080601f8311600181146200095457600084156200093b5750858301515b600019600386901b1c1916600185901b178555620008e0565b600085815260208120601f198616915b82811015620009855788860151825594840194600190910190840162000964565b5085821015620009a45787850151600019600388901b60f8161c191681555b5050505050600190811b01905550565b808201808211156200036a576200036a62000702565b634e487b7160e01b600052601260045260246000fd5b634e487b7160e01b600052602160045260246000fd5b600060ff83168062000a1857634e487b7160e01b600052601260045260246000fd5b8060ff84160691505092915050565b60805160a051613a1f62000a93600039600081816108970152818161220e0152818161228301526123a70152600081816106c801528181610e02015281816115de015281816118af01528181611c1a015281816127880152818161290c01526129c50152613a1f6000f3fe6080604052600436106103ad5760003560e01c8063857749b0116101e7578063bc70b3541161010d578063dd62ed3e116100a0578063f2fde38b1161006f578063f2fde38b14610b4d578063f5eb42dc14610b6d578063fc0c546a1461064c578063ff7bd03d14610ba357600080fd5b8063dd62ed3e14610aa9578063e0b231fa14610aef578063e30c397814610b0f578063ee7a7c0414610b2d57600080fd5b8063ca5eb5e1116100dc578063ca5eb5e114610a36578063d045a0dc14610a56578063d424388514610a69578063db068e0e14610a8957600080fd5b8063bc70b354146109cc578063bd815db0146109ec578063c0463711146109ff578063c7c7f5b314610a1557600080fd5b80639f68b96411610185578063b6b55f2511610154578063b6b55f251461093f578063b731ea0a1461095f578063b98bd0701461097f578063bb0b6a531461099f57600080fd5b80639f68b964146108cf578063a0aa6995146108e3578063a9059cbb14610903578063aaf5eb681461092357600080fd5b80639012e40d116101c15780639012e40d1461085057806395d89b4114610870578063963efcaa1461088557806399530b06146108b957600080fd5b8063857749b0146107fe5780638da5cb5b146108125780638fcb4e5b1461083057600080fd5b80633a98ef39116102d75780636d7804591161026a57806379ba50971161023957806379ba50971461075f5780637d25a05e146107745780637fe0c850146107af57806382413eac146107cf57600080fd5b80636d780459146106ea5780636fc1b31e1461070a57806370a082311461072a578063715018a61461074a57600080fd5b806352ae2879116102a657806352ae28791461064c5780635535d4611461065f5780635a0dfe4d1461067f5780635e280f11146106b657600080fd5b80633a98ef39146105d45780633b6f743b146105e95780633ba0b9a914610616578063528c198a1461062c57600080fd5b8063156a0d0f1161034f57806323b872dd1161031e57806323b872dd14610552578063313ce567146105725780633400288b1461059457806338d52e0f146105b457600080fd5b8063156a0d0f146104d157806317442b70146104f857806318160ddd1461051a5780631f5e13341461053d57600080fd5b80630dee9a491161038b5780630dee9a491461043c578063111ecdad1461047457806313137d6514610494578063134d4f25146104a957600080fd5b806306fdde03146103b2578063095ea7b3146103dd5780630d35b4151461040d575b600080fd5b3480156103be57600080fd5b506103c7610bc3565b6040516103d49190612a81565b60405180910390f35b3480156103e957600080fd5b506103fd6103f8366004612aa9565b610c55565b60405190151581526020016103d4565b34801561041957600080fd5b5061042d610428366004612aed565b610c6f565b6040516103d493929190612b21565b34801561044857600080fd5b50600b5461045c906001600160a01b031681565b6040516001600160a01b0390911681526020016103d4565b34801561048057600080fd5b5060045461045c906001600160a01b031681565b6104a76104a2366004612c14565b610e00565b005b3480156104b557600080fd5b506104be600281565b60405161ffff90911681526020016103d4565b3480156104dd57600080fd5b506040805162b9270b60e21b815260016020820152016103d4565b34801561050457600080fd5b50604080516001815260026020820152016103d4565b34801561052657600080fd5b5061052f610ec0565b6040519081526020016103d4565b34801561054957600080fd5b506104be600181565b34801561055e57600080fd5b506103fd61056d366004612cb3565b610ed2565b34801561057e57600080fd5b5060125b60405160ff90911681526020016103d4565b3480156105a057600080fd5b506104a76105af366004612d0d565b610ef8565b3480156105c057600080fd5b50600e5461045c906001600160a01b031681565b3480156105e057600080fd5b5060115461052f565b3480156105f557600080fd5b50610609610604366004612d37565b610f0e565b6040516103d49190612d88565b34801561062257600080fd5b5061052f600c5481565b34801561063857600080fd5b506104a7610647366004612aa9565b610f75565b34801561065857600080fd5b503061045c565b34801561066b57600080fd5b506103c761067a366004612db1565b610fa9565b34801561068b57600080fd5b506103fd61069a366004612d0d565b63ffffffff919091166000908152600160205260409020541490565b3480156106c257600080fd5b5061045c7f000000000000000000000000000000000000000000000000000000000000000081565b3480156106f657600080fd5b5061052f610705366004612cb3565b61104e565b34801561071657600080fd5b506104a7610725366004612de4565b61107b565b34801561073657600080fd5b5061052f610745366004612de4565b6110d8565b34801561075657600080fd5b506104a76110fa565b34801561076b57600080fd5b506104a761110e565b34801561078057600080fd5b5061079761078f366004612d0d565b600092915050565b6040516001600160401b0390911681526020016103d4565b3480156107bb57600080fd5b5061052f6107ca366004612e01565b611152565b3480156107db57600080fd5b506103fd6107ea366004612e1a565b6001600160a01b0381163014949350505050565b34801561080a57600080fd5b506006610582565b34801561081e57600080fd5b506000546001600160a01b031661045c565b34801561083c57600080fd5b5061052f61084b366004612aa9565b61116e565b34801561085c57600080fd5b506104a761086b366004612de4565b611188565b34801561087c57600080fd5b506103c76111b2565b34801561089157600080fd5b5061052f7f000000000000000000000000000000000000000000000000000000000000000081565b3480156108c557600080fd5b5061052f600f5481565b3480156108db57600080fd5b5060006103fd565b3480156108ef57600080fd5b506103fd6108fe366004612aa9565b6111c1565b34801561090f57600080fd5b506103fd61091e366004612aa9565b6111e6565b34801561092f57600080fd5b5061052f670de0b6b3a764000081565b34801561094b57600080fd5b5061052f61095a366004612e01565b6111f4565b34801561096b57600080fd5b5060025461045c906001600160a01b031681565b34801561098b57600080fd5b506104a761099a366004612ec4565b611237565b3480156109ab57600080fd5b5061052f6109ba366004612f05565b60016020526000908152604090205481565b3480156109d857600080fd5b506103c76109e7366004612f20565b611251565b6104a76109fa366004612ec4565b6113f9565b348015610a0b57600080fd5b5061052f600d5481565b610a28610a23366004612f80565b611583565b6040516103d4929190612fed565b348015610a4257600080fd5b506104a7610a51366004612de4565b6115b7565b6104a7610a64366004612c14565b61163d565b348015610a7557600080fd5b506104a7610a84366004612de4565b61166c565b348015610a9557600080fd5b506104a7610aa4366004612e01565b6116c2565b348015610ab557600080fd5b5061052f610ac436600461303f565b6001600160a01b03918216600090815260066020908152604080832093909416825291909152205490565b348015610afb57600080fd5b5061052f610b0a366004612e01565b6116f9565b348015610b1b57600080fd5b50600a546001600160a01b031661045c565b348015610b3957600080fd5b506104a7610b48366004612aa9565b611715565b348015610b5957600080fd5b506104a7610b68366004612de4565b611749565b348015610b7957600080fd5b5061052f610b88366004612de4565b6001600160a01b031660009081526010602052604090205490565b348015610baf57600080fd5b506103fd610bbe36600461306d565b61175a565b606060088054610bd290613089565b80601f0160208091040260200160405190810160405280929190818152602001828054610bfe90613089565b8015610c4b5780601f10610c2057610100808354040283529160200191610c4b565b820191906000526020600020905b815481529060010190602001808311610c2e57829003601f168201915b5050505050905090565b600033610c63818585611790565b60019150505b92915050565b60408051808201909152600080825260208201526060610ca2604051806040016040528060008152602001600081525090565b600080306001600160a01b031663fc0c546a6040518163ffffffff1660e01b8152600401602060405180830381865afa158015610ce3573d6000803e3d6000fd5b505050506040513d601f19601f82011682018060405250810190610d0791906130bd565b6001600160a01b03166318160ddd6040518163ffffffff1660e01b8152600401602060405180830381865afa158015610d44573d6000803e3d6000fd5b505050506040513d601f19601f82011682018060405250810190610d6891906130da565b60408051808201825284815260208082018490528251600080825291810190935290975091925090610dbd565b604080518082019091526000815260606020820152815260200190600190039081610d955790505b509350600080610de2604089013560608a0135610ddd60208c018c612f05565b6117a2565b60408051808201909152918252602082015296989597505050505050565b7f00000000000000000000000000000000000000000000000000000000000000006001600160a01b03163314610e50576040516391ac5e4f60e01b81523360048201526024015b60405180910390fd5b60208701803590610e6a90610e65908a612f05565b6117de565b14610ea857610e7c6020880188612f05565b60405163309afaf360e21b815263ffffffff909116600482015260208801356024820152604401610e47565b610eb78787878787878761181a565b50505050505050565b6000610ecd601154611152565b905090565b600033610ee0858285611981565b610eeb858585611a00565b60019150505b9392505050565b610f00611a5f565b610f0a8282611a8c565b5050565b60408051808201909152600080825260208201526000610f3e60408501356060860135610ddd6020880188612f05565b915050600080610f4e8684611ae1565b9092509050610f6b610f636020880188612f05565b838388611c04565b9695505050505050565b600b546001600160a01b03163314610f9f5760405162461bcd60e51b8152600401610e4790613109565b610f0a8282611ce5565b600360209081526000928352604080842090915290825290208054610fcd90613089565b80601f0160208091040260200160405190810160405280929190818152602001828054610ff990613089565b80156110465780601f1061101b57610100808354040283529160200191611046565b820191906000526020600020905b81548152906001019060200180831161102957829003601f168201915b505050505081565b60008061105a83611152565b9050611067853383611981565b61107385858584611d1b565b949350505050565b611083611a5f565b600480546001600160a01b0319166001600160a01b0383169081179091556040519081527ff0be4f1e87349231d80c36b33f9e8639658eeaf474014dee15a3e6a4d4414197906020015b60405180910390a150565b6001600160a01b038116600090815260106020526040812054610ef181611152565b611102611a5f565b61110c6000611d7b565b565b600a5433906001600160a01b031681146111465760405163118cdaa760e01b81526001600160a01b0382166004820152602401610e47565b61114f81611d7b565b50565b600c54600090610c69908390670de0b6b3a76400006001611d84565b60008061117a83611152565b9050610ef133858584611d1b565b611190611a5f565b600b80546001600160a01b0319166001600160a01b0392909216919091179055565b606060098054610bd290613089565b600033816111ce84611152565b90506111db828683611790565b506001949350505050565b600033610c63818585611a00565b600080600f5483611205919061315e565b600e54909150611220906001600160a01b0316333086611dc8565b600e54610c69906001600160a01b03163385611e2f565b61123f611a5f565b610f0a61124c8284613213565b611e60565b63ffffffff8416600090815260036020908152604080832061ffff8716845290915281208054606092919061128590613089565b80601f01602080910402602001604051908101604052809291908181526020018280546112b190613089565b80156112fe5780601f106112d3576101008083540402835291602001916112fe565b820191906000526020600020905b8154815290600101906020018083116112e157829003601f168201915b50505050509050805160000361134e5783838080601f0160208091040260200160405190810160405280939291908181526020018383808284376000920191909152509294506110739350505050565b600083900361135e579050611073565b600283106113dc576113a584848080601f016020809104026020016040519081016040528093929190818152602001838380828437600092019190915250611f6792505050565b806113b38460028188613328565b6040516020016113c593929190613352565b604051602081830303815290604052915050611073565b8383604051639a6d49cd60e01b8152600401610e479291906133a3565b60005b818110156115025736838383818110611417576114176133b7565b905060200281019061142991906133cd565b905061145c61143b6020830183612f05565b602083013563ffffffff919091166000908152600160205260409020541490565b61146657506114fa565b3063d045a0dc60c08301358360a08101356114856101008301836133ee565b611496610100890160e08a01612de4565b6114a46101208a018a6133ee565b6040518963ffffffff1660e01b81526004016114c69796959493929190613449565b6000604051808303818588803b1580156114df57600080fd5b505af11580156114f3573d6000803e3d6000fd5b5050505050505b6001016113fc565b50336001600160a01b0316638e9e70996040518163ffffffff1660e01b8152600401600060405180830381865afa158015611541573d6000803e3d6000fd5b505050506040513d6000823e601f3d908101601f1916820160405261156991908101906134cf565b604051638351eea760e01b8152600401610e479190612a81565b61158b6129ea565b60408051808201909152600080825260208201526115aa858585611f93565b915091505b935093915050565b6115bf611a5f565b60405163ca5eb5e160e01b81526001600160a01b0382811660048301527f0000000000000000000000000000000000000000000000000000000000000000169063ca5eb5e190602401600060405180830381600087803b15801561162257600080fd5b505af1158015611636573d6000803e3d6000fd5b5050505050565b33301461165d5760405163029a949d60e31b815260040160405180910390fd5b610eb787878787878787610ea8565b611674611a5f565b600280546001600160a01b0319166001600160a01b0383169081179091556040519081527fd48d879cef83a1c0bdda516f27b13ddb1b3f8bbac1c9e1511bb2a659c2427760906020016110cd565b600b546001600160a01b031633146116ec5760405162461bcd60e51b8152600401610e4790613109565b61114f81600c5542600d55565b600c54600090610c69908390670de0b6b3a76400009084611d84565b600b546001600160a01b0316331461173f5760405162461bcd60e51b8152600401610e4790613109565b610f0a828261208e565b611751611a5f565b61114f816120c4565b60006020820180359060019083906117729086612f05565b63ffffffff1681526020810191909152604001600020541492915050565b61179d8383836001612135565b505050565b6000806117ae8561220a565b9150819050838110156115af576040516371c4efed60e01b81526004810182905260248101859052604401610e47565b63ffffffff811660009081526001602052604081205480610c695760405163f6ff4fb760e01b815263ffffffff84166004820152602401610e47565b600061182c6118298787612241565b90565b90506000611858826118466118418a8a612259565b61227c565b61185360208d018d612f05565b6122b1565b9050602886111561191f57600061189561187860608c0160408d0161353c565b61188560208d018d612f05565b846118908c8c6122d9565b612324565b604051633e5ac80960e11b81529091506001600160a01b037f00000000000000000000000000000000000000000000000000000000000000001690637cb59012906118eb9086908d906000908790600401613559565b600060405180830381600087803b15801561190557600080fd5b505af1158015611919573d6000803e3d6000fd5b50505050505b6001600160a01b038216887fefed6d3500546b29533b128a29e3a94d70788727f0507505ac12eaf2e578fd9c61195860208d018d612f05565b6040805163ffffffff9092168252602082018690520160405180910390a3505050505050505050565b6001600160a01b038381166000908152600660209081526040808320938616835292905220546000198110156119fa57818110156119eb57604051637dc7a0d960e11b81526001600160a01b03841660048201526024810182905260448101839052606401610e47565b6119fa84848484036000612135565b50505050565b6001600160a01b038316611a2a57604051634b637e8f60e11b815260006004820152602401610e47565b6001600160a01b038216611a545760405163ec442f0560e01b815260006004820152602401610e47565b61179d838383612356565b6000546001600160a01b0316331461110c5760405163118cdaa760e01b8152336004820152602401610e47565b63ffffffff8216600081815260016020908152604091829020849055815192835282018390527f238399d427b947898edb290f5ff0f9109849b1c3ba196a42e35f00c50a54b98b910160405180910390a15050565b6060806000611b3e8560200135611af7866123a0565b611b0460a08901896133ee565b8080601f0160208091040260200160405190810160405280939291908181526020018383808284376000920191909152506123cc92505050565b9093509050600081611b51576001611b54565b60025b9050611b74611b666020880188612f05565b826109e760808a018a6133ee565b6004549093506001600160a01b03168015611bfa5760405163043a78eb60e01b81526001600160a01b0382169063043a78eb90611bb7908890889060040161358a565b602060405180830381865afa158015611bd4573d6000803e3d6000fd5b505050506040513d601f19601f82011682018060405250810190611bf891906135af565b505b5050509250929050565b60408051808201909152600080825260208201527f00000000000000000000000000000000000000000000000000000000000000006001600160a01b031663ddc28c586040518060a001604052808863ffffffff168152602001611c67896117de565b8152602001878152602001868152602001851515815250306040518363ffffffff1660e01b8152600401611c9c9291906135cc565b6040805180830381865afa158015611cb8573d6000803e3d6000fd5b505050506040513d601f19601f82011682018060405250810190611cdc9190613675565b95945050505050565b6001600160a01b038216611d0f5760405163ec442f0560e01b815260006004820152602401610e47565b610f0a60008383612356565b6001600160a01b038416611d4557604051634b637e8f60e11b815260006004820152602401610e47565b6001600160a01b038316611d6f5760405163ec442f0560e01b815260006004820152602401610e47565b6119fa84848484612446565b61114f816125c3565b6000611db3611d92836125dc565b8015611dae575060008480611da957611da9613132565b868809115b151590565b611dbe868686612609565b611cdc9190613691565b6040516001600160a01b0384811660248301528381166044830152606482018390526119fa9186918216906323b872dd906084015b604051602081830303815290604052915060e01b6020820180516001600160e01b0383818316178352505050506126be565b6040516001600160a01b0383811660248301526044820183905261179d91859182169063a9059cbb90606401611dfd565b60005b8151811015611f3757611e92828281518110611e8157611e816133b7565b602002602001015160400151611f67565b818181518110611ea457611ea46133b7565b60200260200101516040015160036000848481518110611ec657611ec66133b7565b60200260200101516000015163ffffffff1663ffffffff1681526020019081526020016000206000848481518110611f0057611f006133b7565b60200260200101516020015161ffff1661ffff1681526020019081526020016000209081611f2e91906136f4565b50600101611e63565b507fbe4864a8e820971c0247f5992e2da559595f7bf076a21cb5928d443d2a13b674816040516110cd91906137b3565b600281015161ffff8116600314610f0a5781604051639a6d49cd60e01b8152600401610e479190612a81565b611f9b6129ea565b6040805180820190915260008082526020820152600080611fd233604089013560608a0135611fcd60208c018c612f05565b61272f565b91509150600080611fe38984611ae1565b909250905061200f611ff860208b018b612f05565b8383612009368d90038d018d61383e565b8b612755565b60408051808201909152858152602080820186905282519298509096503391907f85496b760a4b7f8d66384b9df21b381f5d1b1e79f229a47aaf4c232edc2fe59a9061205d908d018d612f05565b6040805163ffffffff909216825260208201899052810187905260600160405180910390a350505050935093915050565b6001600160a01b0382166120b857604051634b637e8f60e11b815260006004820152602401610e47565b610f0a82600083612356565b6120cc611a5f565b600a80546001600160a01b0383166001600160a01b031990911681179091556120fd6000546001600160a01b031690565b6001600160a01b03167f38d16b8cac22d99fc7c124b9cd0de2d3fa1faef420bfe791d8c362d765e2270060405160405180910390a350565b6001600160a01b03841661215f5760405163e602df0560e01b815260006004820152602401610e47565b6001600160a01b03831661218957604051634a1406b160e11b815260006004820152602401610e47565b6001600160a01b03808516600090815260066020908152604080832093871683529290522082905580156119fa57826001600160a01b0316846001600160a01b03167f8c5be1e5ebec7d5bd14f71427d1e84f3dd0314c0f7b2291e5b200ac8c7c3b925846040516121fc91815260200190565b60405180910390a350505050565b60007f0000000000000000000000000000000000000000000000000000000000000000612237818461315e565b610c699190613870565b60006122506020828486613328565b610ef191613887565b6000612269602860208486613328565b612272916138a5565b60c01c9392505050565b6000610c697f00000000000000000000000000000000000000000000000000000000000000006001600160401b038416613870565b60006001600160a01b0384166122c75761dead93505b6122d18484611ce5565b509092915050565b60606122e88260288186613328565b8080601f016020809104026020016040519081016040528093929190818152602001838380828437600092019190915250929695505050505050565b60608484848460405160200161233d94939291906138d5565b6040516020818303038152906040529050949350505050565b6001600160a01b038316158061237357506001600160a01b038216155b1561238c5761179d83838361238785611152565b612446565b61179d838361239a846116f9565b84612446565b6000610c697f00000000000000000000000000000000000000000000000000000000000000008361315e565b805160609015158061241557848460405160200161240192919091825260c01b6001600160c01b031916602082015260280190565b60405160208183030381529060405261243c565b8484338560405160200161242c9493929190613924565b6040516020818303038152906040525b9150935093915050565b6001600160a01b0384166124715781601160008282546124669190613691565b909155506124f69050565b6001600160a01b038416600090815260106020526040902054828110156124d7578461249c82611152565b6124a585611152565b60405163391434e360e21b81526001600160a01b03909316600484015260248301919091526044820152606401610e47565b6001600160a01b03851660009081526010602052604090209083900390555b6001600160a01b03831661251257601180548390039055612531565b6001600160a01b03831660009081526010602052604090208054830190555b826001600160a01b0316846001600160a01b03167fddf252ad1be2c89b69c2b068fc378daa952ba7f163c4a11628f55a4df523b3ef8360405161257691815260200190565b60405180910390a3826001600160a01b0316846001600160a01b03167f9d9c909296d9c674451c0c24f02cb64981eb3b727f99865939192f880a755dcb846040516121fc91815260200190565b600a80546001600160a01b031916905561114f81612860565b600060028260038111156125f2576125f2613967565b6125fc919061397d565b60ff166001149050919050565b600080600061261886866128b0565b915091508160000361263d5783818161263357612633613132565b0492505050610ef1565b8184116126545761265460038515026011186128ce565b6000848688096000868103871696879004966002600389028118808a02820302808a02820302808a02820302808a02820302808a02820302808a02909103029181900381900460010185841190960395909502919093039390930492909217029150509392505050565b600080602060008451602086016000885af1806126e1576040513d6000823e3d81fd5b50506000513d915081156126f9578060011415612706565b6001600160a01b0384163b155b156119fa57604051635274afe760e01b81526001600160a01b0385166004820152602401610e47565b60008061273d8585856117a2565b909250905061274c868361208e565b94509492505050565b61275d6129ea565b600061276c84600001516128e0565b602085015190915015612786576127868460200151612908565b7f00000000000000000000000000000000000000000000000000000000000000006001600160a01b0316632637a450826040518060a001604052808b63ffffffff1681526020016127d68c6117de565b81526020018a815260200189815260200160008960200151111515815250866040518463ffffffff1660e01b81526004016128129291906135cc565b60806040518083038185885af1158015612830573d6000803e3d6000fd5b50505050506040513d601f19601f82011682018060405250810190612855919061399f565b979650505050505050565b600080546001600160a01b038381166001600160a01b0319831681178455604051919092169283917f8be0079c531659141344cd1fd0a4f28419497f9722a3daafe3b4186f6b6457e09190a35050565b60008060001983850993909202808410938190039390930393915050565b634e487b71600052806020526024601cfd5b6000813414612904576040516304fb820960e51b8152346004820152602401610e47565b5090565b60007f00000000000000000000000000000000000000000000000000000000000000006001600160a01b031663e4fe1d946040518163ffffffff1660e01b8152600401602060405180830381865afa158015612968573d6000803e3d6000fd5b505050506040513d601f19601f8201168201806040525081019061298c91906130bd565b90506001600160a01b0381166129b5576040516329b99a9560e11b815260040160405180910390fd5b610f0a6001600160a01b038216337f000000000000000000000000000000000000000000000000000000000000000085611dc8565b60405180606001604052806000801916815260200160006001600160401b03168152602001612a2c604051806040016040528060008152602001600081525090565b905290565b60005b83811015612a4c578181015183820152602001612a34565b50506000910152565b60008151808452612a6d816020860160208601612a31565b601f01601f19169290920160200192915050565b602081526000610ef16020830184612a55565b6001600160a01b038116811461114f57600080fd5b60008060408385031215612abc57600080fd5b8235612ac781612a94565b946020939093013593505050565b600060e08284031215612ae757600080fd5b50919050565b600060208284031215612aff57600080fd5b81356001600160401b03811115612b1557600080fd5b61107384828501612ad5565b8351815260208085015190820152600060a08201604060a0604085015281865180845260c08601915060c08160051b8701019350602080890160005b83811015612b9c5788870360bf19018552815180518852830151838801879052612b8987890182612a55565b9750509382019390820190600101612b5d565b50508751606088015250505060208501516080850152509050611073565b600060608284031215612ae757600080fd5b60008083601f840112612bde57600080fd5b5081356001600160401b03811115612bf557600080fd5b602083019150836020828501011115612c0d57600080fd5b9250929050565b600080600080600080600060e0888a031215612c2f57600080fd5b612c398989612bba565b96506060880135955060808801356001600160401b0380821115612c5c57600080fd5b612c688b838c01612bcc565b909750955060a08a01359150612c7d82612a94565b90935060c08901359080821115612c9357600080fd5b50612ca08a828b01612bcc565b989b979a50959850939692959293505050565b600080600060608486031215612cc857600080fd5b8335612cd381612a94565b92506020840135612ce381612a94565b929592945050506040919091013590565b803563ffffffff81168114612d0857600080fd5b919050565b60008060408385031215612d2057600080fd5b612ac783612cf4565b801515811461114f57600080fd5b60008060408385031215612d4a57600080fd5b82356001600160401b03811115612d6057600080fd5b612d6c85828601612ad5565b9250506020830135612d7d81612d29565b809150509250929050565b815181526020808301519082015260408101610c69565b803561ffff81168114612d0857600080fd5b60008060408385031215612dc457600080fd5b612dcd83612cf4565b9150612ddb60208401612d9f565b90509250929050565b600060208284031215612df657600080fd5b8135610ef181612a94565b600060208284031215612e1357600080fd5b5035919050565b60008060008060a08587031215612e3057600080fd5b612e3a8686612bba565b935060608501356001600160401b03811115612e5557600080fd5b612e6187828801612bcc565b9094509250506080850135612e7581612a94565b939692955090935050565b60008083601f840112612e9257600080fd5b5081356001600160401b03811115612ea957600080fd5b6020830191508360208260051b8501011115612c0d57600080fd5b60008060208385031215612ed757600080fd5b82356001600160401b03811115612eed57600080fd5b612ef985828601612e80565b90969095509350505050565b600060208284031215612f1757600080fd5b610ef182612cf4565b60008060008060608587031215612f3657600080fd5b612f3f85612cf4565b9350612f4d60208601612d9f565b925060408501356001600160401b03811115612f6857600080fd5b612f7487828801612bcc565b95989497509550505050565b60008060008385036080811215612f9657600080fd5b84356001600160401b03811115612fac57600080fd5b612fb887828801612ad5565b9450506040601f1982011215612fcd57600080fd5b506020840191506060840135612fe281612a94565b809150509250925092565b600060c082019050835182526001600160401b0360208501511660208301526040840151613028604084018280518252602090810151910152565b5082516080830152602083015160a0830152610ef1565b6000806040838503121561305257600080fd5b823561305d81612a94565b91506020830135612d7d81612a94565b60006060828403121561307f57600080fd5b610ef18383612bba565b600181811c9082168061309d57607f821691505b602082108103612ae757634e487b7160e01b600052602260045260246000fd5b6000602082840312156130cf57600080fd5b8151610ef181612a94565b6000602082840312156130ec57600080fd5b5051919050565b634e487b7160e01b600052604160045260246000fd5b6020808252600f908201526e27b7363c9037b33a103937baba32b960891b604082015260600190565b634e487b7160e01b600052601260045260246000fd5b634e487b7160e01b600052601160045260246000fd5b60008261316d5761316d613132565b500490565b604051606081016001600160401b0381118282101715613194576131946130f3565b60405290565b604080519081016001600160401b0381118282101715613194576131946130f3565b604051601f8201601f191681016001600160401b03811182821017156131e4576131e46130f3565b604052919050565b60006001600160401b03821115613205576132056130f3565b50601f01601f191660200190565b60006001600160401b038084111561322d5761322d6130f3565b8360051b602061323e8183016131bc565b86815291850191818101903684111561325657600080fd5b865b8481101561331c578035868111156132705760008081fd5b880160603682900312156132845760008081fd5b61328c613172565b61329582612cf4565b81526132a2868301612d9f565b86820152604080830135898111156132ba5760008081fd5b929092019136601f8401126132cf5760008081fd5b82356132e26132dd826131ec565b6131bc565b81815236898387010111156132f75760008081fd5b818986018a830137600091810189019190915290820152845250918301918301613258565b50979650505050505050565b6000808585111561333857600080fd5b8386111561334557600080fd5b5050820193919092039150565b60008451613364818460208901612a31565b8201838582376000930192835250909392505050565b81835281816020850137506000828201602090810191909152601f909101601f19169091010190565b60208152600061107360208301848661337a565b634e487b7160e01b600052603260045260246000fd5b6000823561013e198336030181126133e457600080fd5b9190910192915050565b6000808335601e1984360301811261340557600080fd5b8301803591506001600160401b0382111561341f57600080fd5b602001915036819003821315612c0d57600080fd5b6001600160401b038116811461114f57600080fd5b63ffffffff61345789612cf4565b168152602088013560208201526000604089013561347481613434565b6001600160401b03811660408401525087606083015260e0608083015261349f60e08301878961337a565b6001600160a01b03861660a084015282810360c08401526134c181858761337a565b9a9950505050505050505050565b6000602082840312156134e157600080fd5b81516001600160401b038111156134f757600080fd5b8201601f8101841361350857600080fd5b80516135166132dd826131ec565b81815285602083850101111561352b57600080fd5b611cdc826020830160208601612a31565b60006020828403121561354e57600080fd5b8135610ef181613434565b60018060a01b038516815283602082015261ffff83166040820152608060608201526000610f6b6080830184612a55565b60408152600061359d6040830185612a55565b8281036020840152611cdc8185612a55565b6000602082840312156135c157600080fd5b8151610ef181612d29565b6040815263ffffffff8351166040820152602083015160608201526000604084015160a0608084015261360260e0840182612a55565b90506060850151603f198483030160a085015261361f8282612a55565b60809690960151151560c08501525050506001600160a01b039190911660209091015290565b60006040828403121561365757600080fd5b61365f61319a565b9050815181526020820151602082015292915050565b60006040828403121561368757600080fd5b610ef18383613645565b80820180821115610c6957610c69613148565b601f82111561179d576000816000526020600020601f850160051c810160208610156136cd5750805b601f850160051c820191505b818110156136ec578281556001016136d9565b505050505050565b81516001600160401b0381111561370d5761370d6130f3565b6137218161371b8454613089565b846136a4565b602080601f831160018114613756576000841561373e5750858301515b600019600386901b1c1916600185901b1785556136ec565b600085815260208120601f198616915b8281101561378557888601518255948401946001909101908401613766565b50858210156137a35787850151600019600388901b60f8161c191681555b5050505050600190811b01905550565b600060208083018184528085518083526040925060408601915060408160051b87010184880160005b8381101561383057888303603f190185528151805163ffffffff1684528781015161ffff1688850152860151606087850181905261381c81860183612a55565b9689019694505050908601906001016137dc565b509098975050505050505050565b60006040828403121561385057600080fd5b61385861319a565b82358152602083013560208201528091505092915050565b8082028115828204841417610c6957610c69613148565b80356020831015610c6957600019602084900360031b1b1692915050565b6001600160c01b031981358181169160088510156138cd5780818660080360031b1b83161692505b505092915050565b6001600160401b0360c01b8560c01b16815263ffffffff60e01b8460e01b16600882015282600c8201526000825161391481602c850160208701612a31565b91909101602c0195945050505050565b8481526001600160401b0360c01b8460c01b16602082015282602882015260008251613957816048850160208701612a31565b9190910160480195945050505050565b634e487b7160e01b600052602160045260246000fd5b600060ff83168061399057613990613132565b8060ff84160691505092915050565b6000608082840312156139b157600080fd5b6139b9613172565b8251815260208301516139cb81613434565b60208201526139dd8460408501613645565b6040820152939250505056fea2646970667358221220b66150108f35b09d100d8a8827d3873ddf8cb00f22a92fc9233b72557242447464736f6c63430008160033",
  "linkReferences": {},
  "deployedLinkReferences": {}
}